:100000000C9480000C94A8000C94A8000C94A800F8
:100010000C94A8000C94A8000C94A8000C94A800C0
:100020000C94A8000C94A8000C94A8000C94A800B0
:100030000C94A8000C94A8000C94A8000C94A800A0
:100040000C94BC0C0C94A8000C94860F0C94B80F64
:100050000C94A8000C94A8000C94A8000C94A80080
:100060000C948F0B0C94A800084AD73B3BCE016E32
:1000700084BCBFFDC12F3D6C74319ABD56833DDAFF
:100080003D00C77F11BED9E4BB4C3E916BAAAABE0E
:10009000000000803F001112131415160A0B0C0DFE
:1000A0000E0F000102030405000000080002010019
:1000B0000003040700000000000000000102040823
:1000C00010204080010204081020010204081020C2
:1000D00004040404040404040202020202020303EE
:1000E0000303030300000000250028002B0000008C
:1000F0000000240027002A001202C30AE80F22028F
:1001000011241FBECFEFD8E0DEBFCDBF11E0A0E0CD
:10011000B1E0E4E1F3E302C005900D92A437B1072A
:10012000D9F723E0A4E7B1E001C01D92AF31B207D7
:10013000E1F710E0CEEFD0E004C02297FE010E946C
:10014000BC16C83FD107C9F70E94DC130C947D1977
:100150000C94000066E671E084E991E00C94F318D9
:100160008BE791E00E94F9064FE06FE08BE791E0AA
:100170000E9486076EE18BE791E00E94050560E131
:100180008BE791E00E940C0562E070E08BE791E064
:100190000E94B70662E070E08BE791E00E946A0778
:1001A00063E08BE791E00E949E0666E071E08BE7DA
:1001B00091E00E94D0054FE051E061E08BE791E0D3
:1001C0000E94EA058BE791E00C94580684E791E0E1
:1001D0000E9481080E941F15CB010895FF920F9382
:1001E0001F93CF93DF93CDB7DEB72C970FB6F8945C
:1001F000DEBF0FBECDBF8C0168E171E0CE0101967C
:100200000E94A511B801CE0107960E94A511BE015A
:100210006F5F7F4FCE0107960E945612F82ECE01D7
:1002200007960E943711CE0101960E943711FF20D8
:1002300031F0B8018EE792E00E94741091C06CE139
:1002400071E0CE0101960E94A511B801CE0107967A
:100250000E94A511BE016F5F7F4FCE0107960E94DD
:100260005612F82ECE0107960E943711CE01019644
:100270000E943711F110DDCF6FE171E0CE010196E0
:100280000E94A511B801CE0107960E94A511BE01DA
:100290006F5F7F4FCE0107960E945612F82ECE0157
:1002A00007960E943711CE0101960E943711F11076
:1002B000C0CF6AE171E0CE0101960E94A511B8019C
:1002C000CE0107960E94A511BE016F5F7F4FCE0140
:1002D00007960E945612F82ECE0107960E943711FB
:1002E000CE0101960E943711F110A3CF6DE171E0AC
:1002F000CE0101960E94A511B801CE0107960E9479
:10030000A511BE016F5F7F4FCE0107960E94561266
:10031000F82ECE0107960E943711CE0101960E9459
:100320003711F11086CF62E271E0CE0101960E9492
:10033000A511B801CE0107960E94A511BE016F5FFD
:100340007F4FCE0107960E945612F82ECE010796D7
:100350000E943711CE0101960E943711F11069CF2A
:100360002C960FB6F894DEBF0FBECDBFDF91CF91B4
:100370001F910F91FF900895CF93DF93EC018BE7CE
:1003800091E00E94120540E2BE018BE791E00E94DD
:100390009F058823C1F38BE791E00E9448058BE716
:1003A00091E0DF91CF910C945806409192015091C9
:1003B00093014F5F5F4F20E030E064E971E08EE829
:1003C00091E00E94651284E991E00E94BC010C94C6
:1003D000AA0026E040E855E260E070E08EE792E097
:1003E0000E94240F60E270E08EE891E00E946811A4
:1003F0000E94B00061E070E084E791E00E94C807CD
:100400006CE170E084E791E00E94D70760E872E059
:1004100084E791E00E949B0764EF71E080E090E048
:100420000C94290D66E671E08EE891E00E94A5111A
:100430004AE069E08BE791E00E94FA0484E791E0EA
:100440000C948F078EE891E00C943711CF93C1E0A4
:100450008EE792E00E94410E892B79F08EE792E0C0
:100460000E945A0E8A3019F4C0938D01F1CF682F83
:100470008EE891E00E941F12EBCFCF91089566E6BF
:1004800071E08EE891E00E94DB1110928D0164E230
:1004900071E08EE792E00E94741080918D018111CD
:1004A00003C00E942602F9CF0895EF92FF920F93A6
:1004B0001F93CF93DF93CDB7DEB72C970FB6F89489
:1004C000DEBF0FBECDBF8C0166E271E0CE010196AA
:1004D0000E94A511BE016F5F7F4FC8010E94561296
:1004E000F82ECE0101960E943711FF2051F00E9494
:1004F000E6004AE050E0BC018EE792E00E941F1146
:100500009DC06AE271E0CE0101960E94A511BE0174
:100510006F5F7F4FC8010E945612F82ECE010196E0
:100520000E943711FF2009F442C066E671E0CE0157
:1005300001960E94A5116AE271E0CE0107960E9421
:10054000A511AE014F5F5F4FBE01695F7F4FC801CC
:100550000E94DD12CE0107960E943711CE0101964E
:100560000E943711C8010E94D0137B0100E010E007
:10057000E016F1069CF00E943F026EE871E0CE01A9
:1005800001960E94D211CE0101960E94D501CE01A2
:1005900001960E9437110F5F1F4FEACF66E671E0A8
:1005A0008EE891E00E94DB1110928D0147C06CE251
:1005B00071E0CE0101960E94A511BE016F5F7F4FD1
:1005C000C8010E945612F82ECE0101960E943711E2
:1005D000FF20A1F0B801CE0101960E94D211CE01F8
:1005E00001960E94D501CE0101960E94371164E266
:1005F00071E08EE792E00E94741020C069E371E020
:10060000CE0101960E94A511BE016F5F7F4FC80108
:100610000E945612F82ECE0101960E943711FF203B
:1006200069F0B801CE0101960E94D211CE01019667
:100630000E94D501CE0101960E9437112C960FB66B
:10064000F894DEBF0FBECDBFDF91CF911F910F9108
:10065000FF90EF900895CF93DF9300D000D000D0AB
:10066000CDB7DEB780918D018823B9F06EE871E0D7
:10067000CE0101960E94D211CE0101960E94550230
:10068000CE0101960E94371166E671E08EE891E096
:100690000E94DB1110928D0113C08BE791E00E9444
:1006A000C005882369F040E264E971E08BE791E0DE
:1006B0000E94C40584E991E00E94EE000E94AA0015
:1006C00026960FB6F894DEBF0FBECDBFDF91CF9157
:1006D0000895CF93CFB7F8948091B401811127C0CA
:1006E000EAEDF0E08491E6ECF0E09491E82FF0E0A0
:1006F000EE0FFF1FE251FF4FA591B4918C9189231A
:1007000021F461E08AE00E940B0E61E08AE00E9421
:10071000D20D8CB580618CBD8CB580648CBD61E0E0
:100720008DE00E94D20D61E08BE00E94D20D80919D
:10073000B4018F5F8093B401CFBFCF9108958EBD78
:1007400000000DB407FEFDCF8EB508952CB52F7DAA
:100750002CBD2CB5237F2CBD2CB52C7F2CBD2DB5ED
:1007600021602DBDFC0181810E940B0E85E090E08F
:100770000C94630DFC018081918189130C940B0E04
:10078000089560E00C94A60361E00C94A603EF9238
:10079000FF921F93CF93DF931F92CDB7DEB77C01FB
:1007A00069830E94C1036981862F8F710E949F0314
:1007B0008FEF0E949F03182FC7010E94C403812F4F
:1007C0000F90DF91CF911F91FF90EF900895CF92FE
:1007D000DF92EF92FF920F931F93CF93DF9300D09E
:1007E0001F92CDB7DEB78C01F22E4A835B836983FB
:1007F0000E94C1036981862F8F7180620E949F03CE
:10080000E82E4A81C42E5B81D52EF40EFC1431F003
:10081000F60181916F010E949F03F8CFC8010E94E9
:10082000C4038E2D0F900F900F90DF91CF911F91E9
:100830000F91FF90EF90DF90CF900895EF92FF928D
:100840001F93CF93DF9300D0CDB7DEB77C014A83EF
:1008500069830E94C1036981862F8F7180620E9423
:100860009F03182F4A81842F0E949F03C7010E9473
:10087000C403812F0F900F90DF91CF911F91FF90B4
:10088000EF900895AF92BF92DF92EF92FF920F9395
:100890001F93CF93DF9300D01F92CDB7DEB78C01AB
:1008A000FC01E580F42EE41608F4FE2CF8018681A4
:1008B000811102C0EF1801C0E12CC80129836A83AD
:1008C0007B830E94C1032981822F0E949F03D82E1F
:1008D0006A81A62E7B81B72EF60EFA1431F0F5014F
:1008E00081915F010E949F03F8CFEE2029F080E004
:1008F0000E949F03EA94F9CFC8010E94C4038D2D82
:100900000F900F900F90DF91CF911F910F91FF905B
:10091000EF90DF90BF90AF900895AF92BF92DF92BB
:10092000EF92FF920F931F93CF93DF9300D0CDB739
:10093000DEB78C01FC01E580F42EE41608F4FE2CF1
:10094000F8018681811102C0EF1801C0E12CC801B5
:1009500069837A830E94C10381E60E949F03D82E97
:100960006981A62E7A81B72EF60EFA1439F08FEF30
:100970000E949F03F50181935F01F7CFEE2029F0DC
:100980008FEF0E949F03EA94F9CFC8010E94C4032D
:100990008D2D0F900F90DF91CF911F910F91FF90B0
:1009A000EF90DF90BF90AF900895EF92FF921F936A
:1009B000CF93DF931F92CDB7DEB77C0169830E948E
:1009C000C1036981862F0E949F03182FC7010E94CF
:1009D000C403812F0F90DF91CF911F91FF90EF9073
:1009E000089562EE0C94D50461EE0C94D5046FEF7B
:1009F0000C94D504FC0160834183148280E28583DA
:100A0000168285E0848717820895462F6E3708F096
:100A10004DE765E00C941E04613208F060E2FC01D1
:100A200065830895CF93DF93EC0160E00E94BA03E1
:100A30008D859E850E94630D6DE1CE010E94C703E6
:100A400081FF07C08D859E850E94630DCE010E94A7
:100A5000F40460E0CE010E94C703482F4E7F60E09F
:100A6000CE010E941E0462E0CE010E94C703E2EAAA
:100A7000F0E0E49121E030E001C0220FEA95EAF7CE
:100A8000822B482F62E0CE01DF91CF910C941E049F
:100A9000CF93DF93EC0160E00E94C70381FD12C099
:100AA00060E0CE010E94C703482F426060E0CE01A3
:100AB0000E941E0465E070E080E090E0DF91CF913D
:100AC0000C94290DDF91CF9108950F93CF93DF936D
:100AD000EC01222311F020EB01C020EACE010E949C
:100AE0004204002339F061E0CE01DF91CF910F91F4
:100AF0000C94BA03DF91CF910F9108950F93CF9388
:100B0000DF93EC0101E00E946505CE010E94F7042D
:100B10008073D9F360E0CE010E94BA0340E767E03A
:100B2000CE010E941E0484FF05C0CE010E94F40481
:100B300080E001C081E0DF91CF910F91089520E026
:100B40000C947E050F931F93CF93DF938C01EB01E1
:100B500067E10E94C70380FD0BC0209759F0C801D0
:100B60000E94F70490E0959587958770888302C06E
:100B700080E001C081E0DF91CF911F910F91089536
:100B800060E070E00C94A205CF93DF93EC010E942B
:100B90008D0440E767E0CE01DF91CF910C941E04F5
:100BA0000F931F93CF93DF93EC018B012C85AB0147
:100BB0006AE00E94E7032C85A80160E1CE010E9453
:100BC000E7034D8161E1CE01DF91CF911F910F913C
:100BD0000C941E04FF920F931F93CF93DF93EC01AD
:100BE000F62E8A01611107C04C8550E0B8010796C6
:100BF0000E94D81807C086E0861708F437C081E045
:100C0000681307C0EF2DF0E0E456FF4F64912C8588
:100C100006C0E62FF0E0E456FF4F649121E0A80102
:100C2000CE010E94E7030F2D10E0F801EA56FF4FB6
:100C300064914D81CE010E941E0462E0CE010E94AB
:100C4000C703F801EE55FF4F049121E030E001C0E9
:100C5000220F0A95EAF7822B482F62E0CE01DF913E
:100C6000CF911F910F91FF900C941E04DF91CF91B3
:100C70001F910F91FF9008951F93CF93DF93EC0185
:100C8000162F62E00E94C703E12FF0E0EE55FF4F00
:100C9000E49141E050E001C0440FEA95EAF7409545
:100CA000482362E0CE01DF91CF911F910C941E0486
:100CB000CF93DF93EC010E94480560E0CE010E94D3
:100CC000C703482F416060E0CE010E941E0440E748
:100CD00067E0CE010E941E0461E0CE010E94BA03CB
:100CE0008F81882349F02C85AE01495F5F4F6AE010
:100CF000CE010E94E70304C060E0CE010E943C06E2
:100D00006DE1CE010E94C70381FF05C0CE01DF91D6
:100D1000CF910C94F404DF91CF910895CF93DF939A
:100D2000EC010E94C10380E50E949F0383E70E94BB
:100D30009F03CE01DF91CF910C94C4031F93CF93F7
:100D4000DF93EC01162F66E00E94C703887F143002
:100D500020F4612F660F6F5F01C067E0462F482BBC
:100D600066E0CE01DF91CF911F910C941E04EF92AB
:100D7000FF920F931F93CF93DF931F92CDB7DEB7F0
:100D80007C018B0166E00E94C703582F577D02301B
:100D9000110531F450620BE910E020E030E00DC0A5
:100DA0000130110529F005E510E020E030E005C034
:100DB000586001E410E020E030E0F7010587168775
:100DC0002787308B452F66E0C70159830E941E0498
:100DD00066E0C7010E94C70391E05981851390E046
:100DE000892F0F90DF91CF911F910F91FF90EF907E
:100DF00008951F93CF93DF93EC0188819981891720
:100E000019F061E00E94D20D89819881981719F03C
:100E100061E00E94D20D0E94690360E0CE010E9451
:100E2000BA0361E0CE010E94A60365E070E080E0B5
:100E300090E00E94290D4CE060E0CE010E941E046B
:100E40004FE564E0CE010E941E0462E070E0CE0136
:100E50000E94B706882311F081E08C8366E0CE0102
:100E60000E94C703182F60E070E0CE010E94B70611
:100E7000CE010E948E0640E06DE1CE010E941E046C
:100E800040E06CE1CE010E941E0440E767E0CE0125
:100E90000E941E046CE4CE010E940505CE010E9452
:100EA000F104CE010E94F404CE010E94480560E0E6
:100EB000CE010E94C703482F4E7F60E0CE010E9402
:100EC0001E04115081E01E3F08F080E0DF91CF91B9
:100ED0001F9108950F931F93CF93DF93EC018B0124
:100EE00060E00E94C703482F437F0115110531F0D0
:100EF0000130110511F4486001C04C6060E0CE0182
:100F0000DF91CF911F910F910C941E0420E1629FFD
:100F1000B00111244F70462B64E00C941E04FC01B8
:100F2000128213821482158285E892E09183808375
:100F30008EE186830895607E7F73FC01208131817C
:100F40002F71307C622B732B7183608308951F9304
:100F5000CF93DF931F92CDB7DEB7162FFC016681CA
:100F600085EB91E049830E943F0A612F85EB91E078
:100F70000E94000A4981642F85EB91E00E94000ADB
:100F800085EB91E00F90DF91CF911F910C94C00AF7
:100F900063707727FC01208131812C7F622B732BBA
:100FA00071836083462F437062E00C94A7076C71D5
:100FB0007727FC0120813181237E622B732B718383
:100FC0006083AB0156954795569547954295440FDA
:100FD000407E61E00C94A707CF92DF92FF920F93BF
:100FE0001F93CF93DF931F92CDB7DEB76C01F62E20
:100FF000042F122FFC01668185EB91E059830E943A
:101000003F0A6F2D85EB91E00E94000A85EB91E08D
:101010000E94C00A412FF601668185EB91E00E9493
:10102000BD0A85EB91E00E94A809612F70E059810B
:101030008617970789F4F02EC02ED52E8C2D8F1988
:10104000811740F485EB91E00E94B009F60181938D
:101050006F01F4CF812F01C080E00F90DF91CF911D
:101060001F910F91FF90DF90CF9008950F931F93E2
:10107000CF93DF93CDB7DEB72C970FB6F894DEBFD2
:101080000FBECDBF8C01FC01408140FF0AC0437000
:1010900062E00E94A70762E470E080E090E00E94B6
:1010A000290D26E0AE01495F5F4F63E0C8010E9451
:1010B000EC07698570E0762F66278A85682B4B855B
:1010C00050E0542F44278C85482B2F8130E0322F5D
:1010D00022278885282B3A8329835C834B837E8350
:1010E0006D833A815C817E8180E090E02C960FB622
:1010F000F894DEBF0FBECDBFDF91CF911F910F914E
:1011000008952F923F924F925F926F927F928F92AB
:101110009F92AF92BF92CF92DF92EF92FF920F9386
:101120001F93CF93DF9300D000D000D0CDB7DEB7B0
:101130004C010E94360829833A834B835C836D837C
:101140007E8309811A81AB80BC808D819E81F401F0
:1011500020803180B10125E0769567952A95E1F7E9
:101160006770772761307105B1F078F062307105F2
:10117000F9F06330710529F566277727681B790B2D
:10118000882777FD8095982F18C0BC01882777FDA8
:101190008095982F08C066277727681B790B8827CA
:1011A00077FD8095982F0E9452152B013C0109C0B4
:1011B000BC01882777FD8095982F0E9452156B01FE
:1011C0007C01832D99278770992781309105A9F09B
:1011D00070F082309105F1F0039729F566277727A3
:1011E0006A197B09882777FD8095982F18C0B5016B
:1011F000882777FD8095982F08C0662777276A197A
:101200007B09882777FD8095982F0E9452152B0126
:101210003C0109C0B501882777FD8095982F0E9471
:1012200052156B017C01232C33242694269426949A
:10123000F7E02F22332481E028163104C1F088F032
:10124000F2E02F16310401F183E02816310429F56C
:1012500066277727601B710B882777FD8095982F6D
:1012600018C0B801882777FD8095982F08C0662799
:101270007727601B710B882777FD8095982F0E9438
:1012800052152B013C0109C0B801882777FD8095D4
:10129000982F0E9452156B017C01A3019201C70196
:1012A000B6010E946014F40122813381448155818A
:1012B0000E94ED136B017C0120E030E0A9010E9447
:1012C000B31487FF0AC02BED3FE049EC50E4C7019F
:1012D000B6010E94ED136B017C012BED3FE049EC60
:1012E00050E4C701B6010E942716181654F42BEDDE
:1012F0003FE049EC50E4C701B6010E94EC136B01DA
:101300007C0120E030E044E353E4C701B6010E94D1
:1013100032162BED3FE049E450E40E94B7142696C4
:101320000FB6F894DEBF0FBECDBFDF91CF911F91F6
:101330000F91FF90EF90DF90CF90BF90AF909F9074
:101340008F907F906F905F904F903F902F90089577
:101350008091E50190E02091E601821B91090895BA
:101360002091E6018091E501281750F4E22FF0E08A
:10137000E951FE4F808190E02F5F2093E6010895B0
:101380008FEF9FEF0895E091E6018091E501E81766
:1013900030F4F0E0E951FE4F808190E008958FEF46
:1013A0009FEF08950895CF92DF92EF92FF920F93EF
:1013B0001F93CF93DF937C01CB018A012091C10160
:1013C000222389F0EB016B01C40ED51ECC15DD057F
:1013D00069F06991D701ED91FC910190F081E02DC8
:1013E000C7010995F3CF642F0E94660BC801DF91F6
:1013F000CF911F910F91FF90EF90DF90CF900895C4
:10140000CF93DF931F92CDB7DEB769832091C101DF
:101410002223D1F02091C201203240F021E030E0BF
:10142000FC013383228380E090E015C08091C301EA
:10143000E82FF0E0EC53FE4F998190838F5F80930B
:10144000C3018093C20105C061E0CE0101960E94F4
:10145000660B81E090E00F90DF91CF910895FC0141
:101460001382128248EE53E060E070E044835583BB
:101470006683778388E491E091838083089581E097
:101480008093C1016093E4011092C3011092C201E4
:1014900008950F93062F21E04091C20164EC71E0A2
:1014A0008091E4010E940F0B1092C3011092C201BF
:1014B0001092C1010F9108958F929F92AF92BF92A7
:1014C000CF92DF92EF92FF920F931F93CF93DF9310
:1014D000EC01F62ED42E48015901EE2019F10E949C
:1014E0003F0A1E2D143008F013E01150B8F0E881C7
:1014F000F98128E0129FB0011124A501940104C0D4
:1015000056954795379527956A95D2F7CA01B9013F
:101510000190F081E02DCE010995E7CF60E0CE018A
:101520000E94490A4D2D413208F040E22C2D67EE11
:1015300071E08F2D0E94C70A1092E6018093E501A9
:10154000DF91CF911F910F91FF90EF90DF90CF909F
:10155000BF90AF909F908F900895CF92EF920F938E
:101560001F93C22EE12C00E010E098010E945C0A5B
:101570001F910F91EF90CF90089521E00C94AD0A48
:1015800061E00C94490A85EB91E00C942F0A4132FA
:1015900008F043C0909174029111FCCF91E09093B8
:1015A0007402209372022FEF2093070210924C02D4
:1015B000240F20934B029093730290917302880F33
:1015C000892B8093730280917102813061F41092B3
:1015D0007102809173028093BB008091BC0083FDF7
:1015E000F8CF85EC01C085EE8093BC008091740239
:1015F0008130E1F380914C02841710F440914C0249
:101600002DE432E0FB01D9018A2F821B841718F4E4
:101610008D918193F9CF842F089580E008950F93E1
:10162000413208F04AC0909174029111FCCF92E0CF
:1016300090937402009372029FEF909307021092AE
:101640004C0240934B02FB016DE472E0DB019A2FE8
:10165000961B941718F491919D93F9CF10927302F1
:1016600090917302880F892B80937302809171028D
:10167000813061F410927102809173028093BB00FB
:101680008091BC0083FDF8CF85EC01C085EE80938E
:10169000BC00222321F0809174028230E1F380911A
:1016A00007028F3F61F080910702803251F08091F4
:1016B0000702803341F483E007C081E005C080E089
:1016C00003C082E001C084E00F910895613298F474
:1016D00020917402243089F460932902FC018BE28A
:1016E00092E0DC012A2F281B261718F421912D9354
:1016F000F9CF80E0089581E0089582E0089585EDB6
:101700008093BC008091BC0084FDFCCF10927402D9
:10171000089585EC8093BC001092740208951F9286
:101720000F920FB60F9211242F933F934F935F9315
:101730006F937F938F939F93AF93BF93EF93FF9399
:101740008091B900887F803609F49EC078F5883290
:1017500009F45DC090F4803109F456C038F4882350
:1017600009F4F5C0883009F44FC0F5C0883109F498
:101770004EC0803209F45FC0EEC0803409F46AC004
:1017800058F4803309F457C0883309F0E4C08093DB
:1017900007020E94890BDFC0803509F44FC08835ED
:1017A00009F45DC0883409F0D6C0D3C0883909F483
:1017B000C4C0A8F4883709F467C038F4883609F43F
:1017C00063C0803709F460C0C6C0883809F4B5C06A
:1017D000803909F45FC0803809F0BDC05BC0803B30
:1017E00009F483C038F4803A09F466C0883A09F4F1
:1017F0007CC0B1C0803C09F4A4C0883C09F4A1C0FD
:10180000883B09F487C0A7C08091730210C09091F3
:101810004C0280914B02981770F5E0914C0281E0E8
:101820008E0F80934C02F0E0E35BFD4F808180934C
:10183000BB0085EC83C0809307028BC0E0914C0213
:1018400081E08E0F80934C028091BB00F0E0E35B5F
:10185000FD4F808390914C0280914B026BC0E091D0
:101860004C0281E08E0F80934C028091BB00F0E02F
:10187000E35BFD4F80838091720281116AC081E039
:101880008093710284EA5EC083E0809374021092B8
:101890000802CFCF80910802803208F04EC0E0915C
:1018A000080281E08E0F809308028091BB00F0E077
:1018B000E75FFD4F8083BDCF0E94890B80910802B6
:1018C000803230F4E0910802F0E0E75FFD4F1082D3
:1018D0006091080270E0E0916D02F0916E0289E083
:1018E00092E009951092080236C084E08093740259
:1018F00010922A0210922902E0916F02F091700278
:10190000099580912902811105C081E08093290207
:1019100010922B02E0912A0281E08E0F80932A021E
:10192000F0E0E55DFD4F80818093BB0090912A023D
:1019300080912902981708F47CCF85E88093BC0039
:101940000AC085EC8093BC001092740204C010920F
:1019500007020E947F0BFF91EF91BF91AF919F9182
:101960008F917F916F915F914F913F912F910F9048
:101970000FBE0F901F9018951F920F920FB60F92E7
:1019800011242F933F938F939F93AF93BF93809195
:10199000760290917702A0917802B091790230910D
:1019A000750223E0230F2D3720F40196A11DB11DF0
:1019B00005C026E8230F0296A11DB11D20937502D4
:1019C0008093760290937702A0937802B093790285
:1019D00080917A0290917B02A0917C02B0917D026D
:1019E0000196A11DB11D80937A0290937B02A09372
:1019F0007C02B0937D02BF91AF919F918F913F91F7
:101A00002F910F900FBE0F901F9018953FB7F8942D
:101A100080917A0290917B02A0917C02B0917D022C
:101A200026B5A89B05C02F3F19F00196A11DB11D39
:101A30003FBF6627782F892F9A2F620F711D811D56
:101A4000911D42E0660F771F881F991F4A95D1F7B5
:101A500008958F929F92AF92BF92CF92DF92EF92B2
:101A6000FF926B017C010E94060D4B015C01C114C9
:101A7000D104E104F104F1F00E94EB130E94060D81
:101A8000681979098A099B09683E734081059105A7
:101A900070F321E0C21AD108E108F10888EE880E3F
:101AA00083E0981EA11CB11CC114D104E104F1040F
:101AB00029F7DDCFFF90EF90DF90CF90BF90AF90F0
:101AC0009F908F9008958230910538F0880F991F6C
:101AD000880F991F05970197F1F70895789484B5B9
:101AE000826084BD84B5816084BD85B5826085BD1A
:101AF00085B5816085BDEEE6F0E080818160808300
:101B0000E1E8F0E0108280818260808380818160E2
:101B10008083E0E8F0E0808181608083E1EBF0E0A9
:101B2000808184608083E0EBF0E08081816080834D
:101B3000EAE7F0E080818460808380818260808336
:101B40008081816080838081806880831092C10061
:101B50000895833081F028F4813099F08230A1F02B
:101B600008958730A9F08830B9F08430D1F480919D
:101B700080008F7D03C0809180008F7780938000EC
:101B8000089584B58F7702C084B58F7D84BD089594
:101B90008091B0008F7703C08091B0008F7D8093DB
:101BA000B0000895CF93DF9390E0FC01E454FF4F21
:101BB0002491FC01E053FF4F8491882349F190E088
:101BC000880F991FFC01E251FF4FA591B4918C51F0
:101BD0009F4FFC01C591D4919FB7611108C0F89443
:101BE0008C91209582238C93888182230AC0623055
:101BF00051F4F8948C91322F309583238C93888103
:101C0000822B888304C0F8948C91822B8C939FBF85
:101C1000DF91CF9108950F931F93CF93DF931F927E
:101C2000CDB7DEB7282F30E0F901E855FF4F84919A
:101C3000F901E454FF4F1491F901E053FF4F04916F
:101C40000023C9F0882321F069830E94A90D6981CE
:101C5000E02FF0E0EE0FFF1FEC51FF4FA591B49184
:101C60009FB7F8948C91611103C01095812301C036
:101C7000812B8C939FBF0F90DF91CF911F910F917C
:101C80000895FC01818D228D90E0805C9F4F821B26
:101C900091098F7399270895FC01918D828D981772
:101CA00031F0828DE80FF11D858D90E008958FEF62
:101CB0009FEF0895FC01918D828D981761F0828DC0
:101CC000DF01A80FB11D5D968C91928D9F5F9F7370
:101CD000928F90E008958FEF9FEF08958EED9FE033
:101CE000892B49F086E292E0892B29F00E94DE0FD1
:101CF00081110C9426020895FC01848DDF01A80F48
:101D0000B11DA35ABF4F2C91848D90E001968F7323
:101D10009927848FA689B7892C93A089B1898C9142
:101D200080648C93938D848D981306C00288F38908
:101D3000E02D80818F7D80830895CF93DF93EC0128
:101D4000888D8823C9F0EA89FB89808185FD05C0DB
:101D5000A889B9898C9186FD0FC00FB607FCF5CF15
:101D6000808185FFF2CFA889B9898C9185FFEDCF5D
:101D7000CE010E947C0EE7CFDF91CF910895CF92E4
:101D8000DF92FF920F931F93CF93DF931F92CDB7F4
:101D9000DEB76C0181E0D60158968C9358975B961C
:101DA0009C915B975C968C915C97981307C05096BA
:101DB000ED91FC915197808185FD2EC0F601038D38
:101DC00010E00F5F1F4F0F731127F02EF601848D67
:101DD000F81211C00FB607FCF9CFD6015096ED915D
:101DE000FC915197808185FFF1CFC60169830E94E4
:101DF0007C0E6981EBCF838DE80FF11DE35AFF4F15
:101E00006083D6015B960C935B975296ED91FC91A3
:101E10005397808180620CC0D6015696ED91FC915B
:101E2000579760835096ED91FC9151978081806423
:101E3000808381E090E00F90DF91CF911F910F910F
:101E4000FF90DF90CF900895BF92CF92DF92EF92F4
:101E5000FF92CF93DF93EC016A017B01B22EE889F8
:101E6000F98982E08083411581EE5807610571058B
:101E7000A1F060E079E08DE390E0A70196010E9477
:101E800098162150310941095109569547953795C2
:101E90002795211580E1380798F0E889F9891082A3
:101EA00060E874E88EE190E0A70196010E94981620
:101EB0002150310941095109569547953795279584
:101EC000EC85FD853083EE85FF852083188EEC89B7
:101ED000FD89B082EA89FB89808180618083EA89FB
:101EE000FB89808188608083EA89FB8980818068A2
:101EF0008083EA89FB8980818F7D8083DF91CF9108
:101F0000FF90EF90DF90CF90BF9008951F920F92B7
:101F10000FB60F9211242F938F939F93EF93FF93FC
:101F2000E0918E02F0918F028081E0919402F09115
:101F3000950282FD12C09081809197028F5F8F730E
:101F400020919802821751F0E0919702F0E0E25858
:101F5000FD4F958F8093970201C08081FF91EF9193
:101F60009F918F912F910F900FBE0F901F901895FA
:101F70001F920F920FB60F9211242F933F934F93FE
:101F80005F936F937F938F939F93AF93BF93EF93E1
:101F9000FF938EE792E00E947C0EFF91EF91BF913C
:101FA000AF919F918F917F916F915F914F913F91F1
:101FB0002F910F900FBE0F901F9018958EE792E013
:101FC0000E94410E21E0892B09F420E0822F089520
:101FD000109281021092800288EE93E0A0E0B0E0BF
:101FE0008093820290938302A0938402B09385022F
:101FF00088E591E090937F0280937E0285EC90E0EB
:1020000090938B0280938A0284EC90E090938D02EF
:1020100080938C0280EC90E090938F0280938E02EC
:1020200081EC90E0909391028093900282EC90E09A
:10203000909393028093920286EC90E090939502A5
:102040008093940210929702109298021092990233
:1020500010929A020895CF92DF92EF92FF920F931F
:102060001F93CF93DF937C016A01EB0100E010E046
:102070000C151D0571F06991D701ED91FC9101904E
:10208000F081E02DC7010995892B19F00F5F1F4FD3
:10209000EFCFC801DF91CF911F910F91FF90EF908B
:1020A000DF90CF9008956115710581F0DB010D90EF
:1020B0000020E9F7AD0141505109461B570BDC01E7
:1020C000ED91FC910280F381E02D099480E090E095
:1020D0000895DC01ED91FC910190F081E02D0994CF
:1020E00064E671E00C9453100F931F93CF93DF932A
:1020F000EC010E9453108C01CE010E947010800FE1
:10210000911FDF91CF911F910F9108958F929F9210
:10211000AF92BF92DF92EF92FF920F931F93CF93F4
:10212000DF93CDB7DEB7A1970FB6F894DEBF0FBE31
:10213000CDBF7C01F42FD52ECB0119A2223008F49B
:102140002AE08E010F5D1F4F822E912CA12CB12C05
:102150006F2F7D2DA50194010E949816F22FD32E8A
:10216000CA01015011096A3014F4E0E301C0E7E349
:10217000E60FD801EC93232B242B252B49F7B8012C
:10218000C7010E945310A1960FB6F894DEBF0FBE90
:10219000CDBFDF91CF911F910F91FF90EF90DF9016
:1021A000BF90AF909F908F900895CF92DF92EF9263
:1021B000FF920F931F93CF93DF93EC016A017B0192
:1021C0002115310579F4E881F9810190F081E02D44
:1021D000642FDF91CF911F910F91FF90EF90DF90CF
:1021E000CF9009942A303105E9F477FF1AC06DE2E7
:1021F0000E9469108C0144275527BA014C195D09CA
:102200006E097F092AE0CE010E948610800F911F7F
:10221000DF91CF911F910F91FF90EF90DF90CF90C2
:1022200008952AE0B701A601CE01DF91CF911F9159
:102230000F91FF90EF90DF90CF900C9486100F934A
:102240001F93CF93DF93EC019A01AB01662757FDF3
:102250006095762F0E94D5108C01CE010E947010DF
:10226000800F911FDF91CF911F910F910895FC0175
:10227000808191810C945817CF93DF93EC01888172
:102280009981009711F00E945817198218821D82B7
:102290001C821B821A82DF91CF9108950F931F93A6
:1022A000CF93DF93EC018B016F5F7F4F8881998122
:1022B0000E94E717009731F0998388831B830A8374
:1022C00081E001C080E0DF91CF911F910F910895CF
:1022D000CF93DF93EC0188819981892B29F08A8142
:1022E0009B818617970760F4CE010E944E118823C8
:1022F00041F08C819D81892B19F4E881F98110824C
:1023000081E0DF91CF910895EF92FF920F931F9399
:10231000CF93DF93EC017B018A01BA010E9468111F
:10232000811104C0CE010E943C1107C01D830C83A3
:10233000B701888199810E94F318CE01DF91CF9176
:102340001F910F91FF90EF900895FC011182108270
:1023500013821282158214826115710559F0FB01F6
:1023600001900020E9F7AF0141505109461B570B7E
:102370000C9484110895CF93DF93EC01FB01861731
:10238000970761F0608171816115710529F04481C1
:1023900055810E94841102C00E943C11CE01DF9140
:1023A000CF910895FC01118210821382128215824E
:1023B00014820C94BB11CF93DF93EC01611571056E
:1023C00061F0FB0101900020E9F7AF014150510994
:1023D000461B570B0E94841102C00E943C11CE0183
:1023E000DF91CF910895EF92FF920F931F93CF93B8
:1023F000DF93EC017B010C811D816115710511F4E6
:1024000080E016C04115510591F0040F151FB80169
:102410000E9468118823A1F3288139818C819D81D4
:10242000B701820F931F0E94F3181D830C8381E074
:10243000DF91CF911F910F91FF90EF900895CF936F
:10244000DF9300D0CDB7DEB769831A8241E050E058
:10245000BE016F5F7F4F0E94F3110F900F90DF91CD
:10246000CF910895FA01DB0114964D915C91159777
:10247000DC0114962D913C911597241B350B2E17DA
:102480003F0788F08D919C91009769F0DB016D9179
:102490007C916115710539F08E0F9F1F0E94FA180B
:1024A00021E0892B09F020E0822F0895FC0144816E
:1024B0005581FB01248135814217530720F040E00C
:1024C00050E00C94321280E008950F931F93CF9345
:1024D000DF93EB0141155105E9F02097D9F0FC019C
:1024E0006481758126173707A0F4621B730B8A017C
:1024F000015011096017710708F48B01FC0160811C
:102500007181620F731FA801CE010E940819C00FCC
:10251000D11F1882DF91CF911F910F910895AF9233
:10252000BF92CF92DF92EF92FF920F931F93CF93C0
:10253000DF937B01EA01FB0144815581411551057F
:1025400069F1FC01248135812115310539F1241708
:10255000350720F1C217D30710F0E9012197FC01DC
:1025600000811181C801AA24AA94BB24BA946801ED
:10257000CC0EDD1EC816D906A0F0F701608171816E
:102580000E941719009769F09C01201B310BC2179C
:10259000D30708F4950101965901ECCF8FEF9FEF17
:1025A00001C0C501DF91CF911F910F91FF90EF9076
:1025B000DF90CF90BF90AF9008952F923F924F92AF
:1025C0005F926F927F928F929F92AF92BF92CF92C3
:1025D000DF92EF92FF920F931F93CF93DF93EC0163
:1025E0005B017A014C805D804114510409F4C5C03F
:1025F000FB01648075806114710409F4BEC0FA01A6
:10260000C480D580C618D70808811981C114D104A7
:10261000C1F4F50160817181C8010E941719EC01B4
:10262000009709F4AAC0F701608171814481558146
:10263000CE010E94D818F701048115810C0F1D1FCF
:10264000E8CFD7FC05C0FB0120803180420143C0A8
:102650004801F50160817181C8010E9417192C01A0
:10266000009719F13201601A710AA301B801C4017F
:102670000E94D818680C791CF7016081718144812F
:102680005581C3010E94D818F70184809580860C7B
:10269000971CF50104811581040D151D8C819D8108
:1026A0008C0D9D1D9D838C83D4CFB801C401DF9117
:1026B000CF911F910F91FF90EF90DF90CF90BF903F
:1026C000AF909F908F907F906F905F904F903F90D2
:1026D0002F900C94F318B101C8010E9417190097AC
:1026E00031F08C01060D171D8C0C9D1CF4CF841449
:1026F000950409F442C08A819B818815990530F4BC
:10270000B401CE010E944E118823B9F14C815D8144
:102710004150510957FD31C0B501CE010E948F12C1
:102720008C0197FD2AC088819981F501248135812A
:10273000200F311F820F931F4C815D81421B530B71
:10274000BC018C0D9D1D0E94E1188C819D818C0D1A
:102750009D1D9D838C83E881F981E80FF91F10820C
:1027600088819981F7016081718144815581800F51
:10277000911F0E94D818A801CBCFDF91CF911F9154
:102780000F91FF90EF90DF90CF90BF90AF909F9010
:102790008F907F906F905F904F903F902F90089513
:1027A000FC0180819181009711F00C94B11860E0D8
:1027B00070E0CB01089508950E946E0D0E94DB1316
:1027C0000E94E901CEE6DEE00E942B032097E1F3B0
:1027D0000E946E0EF9CF08955058BB27AA270ED03D
:1027E000FCC1EDD130F0F2D120F031F49F3F11F473
:1027F0001EF4BDC10EF4E095E7FBB3C1E92FFED195
:1028000080F3BA17620773078407950718F071F40D
:102810009EF516C20EF4E0950B2EBA2FA02D0B01DB
:10282000B90190010C01CA01A0011124FF27591B15
:1028300099F0593F50F4503E68F11A16F040A22F1B
:10284000232F342F4427585FF3CF4695379527958C
:10285000A795F0405395C9F77EF41F16BA0B620B8B
:10286000730B840BBAF09150A1F0FF0FBB1F661FD2
:10287000771F881FC2F70EC0BA0F621F731F841F15
:1028800048F4879577956795B795F7959E3F08F03B
:10289000B3CF9395880F08F09927EE0F97958795FA
:1028A00008958DD158F080E891E009F49EEF8ED123
:1028B00028F040E851E059F45EEF09C058C1C0C1AA
:1028C000E92FE0789BD168F3092E052AC1F326177A
:1028D00037074807590738F00E2E07F8E02569F04A
:1028E000E025E0640AC0EF6307F8009407FADB0113
:1028F000B9019D01DC01CA01AD01EF9347D06DD153
:102900000AD05F91552331F02BED3FE049E450FDB3
:1029100049EC63CF0895DF93DD27B92FBF7740E8F7
:102920005FE31616170648075B0710F4D92F93D1FB
:102930009F938F937F936F93F8D1E8E6F0E01AD1DD
:102940004CD12F913F914F915F9198D1DD2349F068
:102950009058A2EA2AED3FE049EC5FE3D0785D278A
:102960004DDFDF913AC1D9D008F481E008950CD051
:1029700034C12CD140F023D130F021F45F3F19F065
:10298000F0C051115EC1F3C039D198F39923C9F356
:102990005523B1F3951B550BBB27AA276217730765
:1029A000840738F09F5F5F4F220F331F441FAA1F19
:1029B000A9F333D00E2E3AF0E0E830D091505040D9
:1029C000E695001CCAF729D0FE2F27D0660F771F87
:1029D000881FBB1F261737074807AB07B0E809F069
:1029E000BB0B802DBF01FF2793585F4F2AF09E3FFE
:1029F000510568F0B6C025C15F3FECF3983EDCF3AB
:102A0000869577956795B795F7959F5FC9F7880F76
:102A1000911D9695879597F90895E1E0660F771FC8
:102A2000881FBB1F621773078407BA0720F0621B59
:102A3000730B840BBA0BEE1F88F7E095089504D052
:102A40006894B111FEC00895E1D088F09F5790F0CE
:102A5000B92F9927B751A0F0D1F0660F771F881FC3
:102A6000991F1AF0BA95C9F712C0B13081F0E8D0B9
:102A7000B1E00895E5C0672F782F8827B85F39F057
:102A8000B93FCCF3869577956795B395D9F73EF422
:102A900090958095709561957F4F8F4F9F4F0895CA
:102AA000E89409C097FB3EF49095809570956195E8
:102AB0007F4F8F4F9F4F9923A9F0F92F96E9BB279E
:102AC0009395F695879577956795B795F111F8CF1A
:102AD000FAF4BB0F11F460FF1BC06F5F7F4F8F4F85
:102AE0009F4F16C0882311F096E911C0772321F07B
:102AF0009EE8872F762F05C0662371F096E8862F13
:102B000070E060E02AF09A95660F771F881FDAF769
:102B1000880F9695879597F90895990F0008550F96
:102B2000AA0BE0E8FEEF16161706E807F907C0F053
:102B300012161306E407F50798F0621B730B840B5B
:102B4000950B39F40A2661F0232B242B252B21F435
:102B500008950A2609F4A140A6958FEF811D811DD5
:102B6000089597F99F6780E870E060E008959FEF0F
:102B700080EC0895DF93CF931F930F93FF92EF9212
:102B8000DF927B018C01689405C0DA2EEF0176D0CC
:102B9000FE01E894A5912591359145915591AEF3AB
:102BA000EF012CDEFE019701A801DA9479F7DF909E
:102BB000EF90FF900F911F91CF91DF910895002426
:102BC0000A941616170618060906089500240A9492
:102BD00012161306140605060895092E0394000C18
:102BE00011F4882352F0BB0F40F4BF2B11F460FFA7
:102BF00004C06F5F7F4F8F4F9F4F089557FD9058D0
:102C0000440F551F59F05F3F71F04795880F97FBB0
:102C1000991F61F09F3F79F087950895121613066A
:102C20001406551FF2CF4695F1DF08C01616170699
:102C30001806991FF1CF86957105610508940895CE
:102C4000E894BB2766277727CB0197F9089565DFBE
:102C500008F48FEF08959B01AC0160E070E080E81C
:102C60009FE385CE0BD0B9CFAADF28F0AFDF18F0F5
:102C7000952309F076CF7BCF1124E3CFBFDFA0F3FC
:102C8000959FD1F3950F50E0551F629FF001729F01
:102C9000BB27F00DB11D639FAA27F00DB11DAA1F20
:102CA000649F6627B00DA11D661F829F2227B00D6D
:102CB000A11D621F739FB00DA11D621F839FA00DF8
:102CC000611D221F749F3327A00D611D231F849F48
:102CD000600D211D822F762F6A2F11249F5750409F
:102CE0008AF0E1F088234AF0EE0FFF1FBB1F661F3A
:102CF000771F881F91505040A9F79E3F510570F0F3
:102D000030CF9FCF5F3FECF3983EDCF3869577950D
:102D10006795B795F795E7959F5FC1F7FE2B880FED
:102D2000911D9695879597F908959B01AC019ACFCF
:102D3000A1E21A2EAA1BBB1BFD010DC0AA1FBB1FBF
:102D4000EE1FFF1FA217B307E407F50720F0A21B31
:102D5000B30BE40BF50B661F771F881F991F1A949E
:102D600069F760957095809590959B01AC01BD01C8
:102D7000CF010895EE0FFF1F0590F491E02D099407
:102D8000CF93DF938230910510F482E090E0E091E0
:102D90001D03F0911E0320E030E0A0E0B0E030978A
:102DA00039F14081518148175907B8F04817590740
:102DB00071F482819381109729F013969C938E93DE
:102DC00012972CC090931E0380931D0327C02115DA
:102DD000310531F04217530718F0A901DB0101C09A
:102DE000EF019A01BD01DF010280F381E02DD7CF11
:102DF00021153105F9F0281B390B2430310580F4F9
:102E00008A819B816115710521F0FB019383828387
:102E100004C090931E0380931D03FE01329644C0AC
:102E2000FE01E20FF31F8193919322503109398300
:102E300028833AC020911B0330911C03232B41F4BB
:102E4000209102013091030130931C0320931B0356
:102E500020910001309101012115310541F42DB778
:102E60003EB74091040150910501241B350BE091C0
:102E70001B03F0911C03E217F307A0F42E1B3F0B7A
:102E80002817390778F0AC014E5F5F4F24173507DC
:102E900048F04E0F5F1F50931C0340931B03819318
:102EA000919302C0E0E0F0E0CF01DF91CF9108956F
:102EB000CF93DF93009709F487C0FC013297138208
:102EC0001282C0911D03D0911E03209781F42081AE
:102ED0003181280F391F80911B0390911C038217A9
:102EE000930779F5F0931C03E0931B036DC0DE019B
:102EF00020E030E0AE17BF0750F412964D915C9180
:102F000013979D014115510509F1DA01F3CFB38300
:102F1000A28340815181840F951F8A179B0771F40A
:102F20008D919C911197840F951F029691838083B8
:102F300012968D919C91139793838283211531056D
:102F400029F4F0931E03E0931D033EC0D9011396AC
:102F5000FC93EE9312974D915D91A40FB51FEA1764
:102F6000FB0779F480819181840F951F0296D90126
:102F700011969C938E938281938113969C938E934A
:102F80001297E0E0F0E08A819B81009719F0FE0142
:102F9000EC01F9CFCE01029628813981820F931F6F
:102FA00020911B0330911C032817390769F43097CF
:102FB00029F410921E0310921D0302C01382128284
:102FC000D0931C03C0931B03DF91CF910895A0E021
:102FD000B0E0EDEEF7E10C944A19EC01CB0120973B
:102FE00019F40E94C016B8C0FE01E60FF71F9E013B
:102FF00022503109E217F30708F4ACC0D9010D9152
:103000001C91119706171707B8F00530110508F441
:103010009FC0A801445051094617570708F498C0AB
:1030200002501109061B170B019311936D937C93AA
:10303000CF010E9458178CC05B01A01AB10A4E0143
:10304000800E911EA0911D03B0911E03612C712C66
:1030500060E070E0109709F449C0A815B905C9F5FA
:10306000ED90FC901197670142E0C40ED11CCA1488
:10307000DB0478F147018A189B08640142E0C40E22
:10308000D11C1296BC9012971396AC91B5E0CB165A
:10309000D10440F0B282A38391828082D9018D93C2
:1030A0009C9309C00E5F1F4F0E0D1F1DF901118368
:1030B0000083EB2DFA2F6115710531F0DB011396BA
:1030C000FC93EE93129744C0F0931E03E0931D030C
:1030D0003FC06D917C9111976616770608F43B010D
:1030E000BD0112960D90BC91A02DB4CF60911B0331
:1030F00070911C0368157905E9F468167906D0F417
:1031000040910001509101014115510541F44DB725
:103110005EB76091040170910501461B570BE417DF
:10312000F507C0F4F0931C03E0931B03F9019183AE
:1031300080830EC00E94C0167C01009759F0A80140
:10314000BE010E94D818CE010E945817C70104C0C2
:10315000CE0102C080E090E0CDB7DEB7EEE00C9487
:1031600066191F93FC0199278827BC01E8941191E7
:103170001032E9F3193010F01E30C8F31B3251F051
:103180001D3249F4689406C00E943119610F711D07
:10319000811D911D119110531A30B0F33EF490959A
:1031A0008095709561957F4F8F4F9F4F1F91089528
:1031B000FB01DC0102C001900D9241505040D8F754
:1031C00008956817790768F4FB01DC01E40FF51F27
:1031D000A40FB51F02C002900E9241505040D8F784
:1031E00008950C94D818FB01DC0101900D92002089
:1031F000E1F70895FB01DC014150504030F08D9122
:103200000190801919F40020B9F7881B990B0895D3
:10321000FB01DC014150504048F001900D9200202C
:10322000C9F701C01D9241505040E0F70895FB01DD
:1032300051915523A9F0BF01DC014D914517411172
:10324000E1F759F4CD010190002049F04D9140156E
:103250004111C9F3FB014111EFCF81E090E00197EB
:103260000895592F482F372F262F660F771F881F55
:10327000991F660F771F881F991F620F731F841F86
:10328000951F660F771F881F991F08952F923F92F1
:103290004F925F926F927F928F929F92AF92BF9266
:1032A000CF92DF92EF92FF920F931F93CF93DF9312
:1032B000CDB7DEB7CA1BDB0B0FB6F894DEBF0FBE6F
:1032C000CDBF09942A88398848885F846E847D84BC
:1032D0008C849B84AA84B984C884DF80EE80FD80BE
:1032E0000C811B81AA81B981CE0FD11D0FB6F89434
:1032F000DEBF0FBECDBFED01089511E0CEEFD0E0EF
:1033000004C0FE010E94BC162296C030D107C9F746
:04331000F894FFCF5F
:1033140000001F0380006E6F6465546F506300707B
:1033240063546F4E6F646500676364006472007376
:10333400720074002E00677764003A005B444154C5
:10334400415F424547494E5D005B444154415F45FE
:103354004E445D0000000000000AD309A809B0092A
:10336400C309D20900000000BF0E2B10410E5A0EF3
:103374004C0E9D0E0D0A006E616E00696E66006F44
:043384007666000069
:00000001FF
