:100000000C94FE000C9426010C9426010C942601FD
:100010000C9426010C9426010C9426010C942601C4
:100020000C9426010C9426010C9426010C942601B4
:100030000C9426010C9426010C9426010C942601A4
:100040000C94361D0C9426010C94291C0C94031C52
:100050000C9426010C9426010C9426010C94260184
:100060000C94AA030C942601000000002400270031
:100070002A0000000000250028002B0000000000DE
:1000800023002600290004040404040404040202DA
:100090000202020203030303030301020408102007
:1000A0004080010204081020010204081020000012
:1000B0000008000201000003040700000000000027
:1000C00000004E414E494E495459494E46CDCCCC84
:1000D0003D0AD7233C17B7D13877CC2B329595E61C
:1000E000241FB14F0A000020410000C84200401CFC
:1000F0004620BCBE4CCA1B0E5AAEC59D7400407A49
:1001000010F35A00A0724E18090010A5D4E80000A0
:10011000E87648170000E40B54020000CA9A3B003E
:100120000000E1F505000080969800000040420FB5
:10013000000000A08601000000102700000000E879
:1001400003000000006400000000000A000000003E
:10015000000100000000002C76D888DC674F0823DF
:10016000DFC1DFAE59E1B1B796E5E3E453C63AE645
:1001700051997696E8E6C28426EB898C9B62ED4025
:100180007C6FFCEFBC9C9F40F2BAA56FA5F4900574
:100190005A2AF75C936B6CF9676DC11BFCE0E40DA8
:1001A00047FEF520E6B500D0ED902E03009435779C
:1001B000050080841E080000204E0A000000C80CC4
:1001C000333333330F986E12831141EF8D2114892D
:1001D0003BE65516CFFEE6DB18D1844B381BF77C87
:1001E0001D901DA4BBE424203284725E228100C9CC
:1001F000F124ECA1E53D27004529392911241FBE32
:10020000CFEFD8E0DEBFCDBF12E0A0E0B1E0E0EC80
:10021000F8E602C005900D92AC33B107D9F726E09D
:10022000ACE3B2E001C01D92A134B207E1F710E0E7
:10023000CDEFD0E004C02197FE010E94E329CC3F1E
:10024000D107C9F70E943A200C9453340C94000053
:1002500085ED8093BC008091BC0084FDFCCF1092A2
:10026000D602089540918B02262F30E0240F311DD5
:1002700021323105DCF42091D6022430C9F4FC018E
:1002800080E090E0861758F430918B022191DC01D8
:10029000A759BD4FA30FB11D2C930196F3CF8091A9
:1002A0008B02680F60938B0280E0089581E00895CF
:1002B00082E008950895E0913D0280913C02E817A4
:1002C00030F4F0E0E75BFD4F808190E008958FEF20
:1002D0009FEF089590913D0280913C02981750F451
:1002E000E92FF0E0E75BFD4F208130E09F5F9093C6
:1002F0003D0202C02FEF3FEFC901089580913C02FB
:1003000090E020913D02821B91090895CF92DF92E7
:10031000EF92FF920F931F93CF93DF937C01262FD1
:10032000972F8A018091D702882391F0C62FD72F6B
:100330006E01C40ED51ECC15DD0571F06991D70193
:10034000ED91FC910190F081E02DC7010995F3CF6B
:10035000642F822F0E943201C801DF91CF911F913B
:100360000F91FF90EF90DF90CF900895CF93DF93A0
:100370001F92CDB7DEB769832091D7022223D1F037
:100380002091FA02203240F021E030E0FC0133837A
:10039000228380E090E015C08091D802E82FF0E041
:1003A000E752FD4F998190838F5F8093D8028093AD
:1003B000FA0205C061E0CE0101960E94320181E09F
:1003C00090E00F90DF91CF910895FC01848583FF29
:1003D0000DC084A195A1A6A1B7A1448D558D668DB0
:1003E000778D841B950BA60BB70B03C080E090E0C4
:1003F000DC01811520E89207A105B10520F08FEFFF
:100400009FE7A0E0B0E008951F93CF93DF9300D063
:10041000CDB7DEB711E08DEF92E00E94F917892B7E
:10042000A9F08DEF92E00E94D7178A3019F410934B
:100430004402F1CF89831A8241E050E0BE016F5F30
:100440007F4F8AE296E00E948A1AE5CF0F900F90C4
:10045000DF91CF911F9108950C960C94CB0ECF9302
:10046000DF931F92CDB7DEB7698341E050E0BE0154
:100470006F5F7F4F0C960E94CB0E0F90DF91CF9154
:10048000089504960C94CB0ECF93DF931F92CDB7B3
:10049000DEB7698341E050E0BE016F5F7F4F049695
:1004A0000E94CB0E0F90DF91CF9108950C960C9483
:1004B0008F0E8EBD0DB407FEFDCF08958FEF8EBD5C
:1004C0000DB407FEFDCF8EB5089590E022E0281709
:1004D00040F0892F806A86958CBD909591709DBD66
:1004E00008959730B0F7220F953010F032E001C038
:1004F00031E0930FECCF61E0FC0182810E94841C0B
:100500008FEF0C945902CF92DF92EF92FF921F93DC
:10051000CF93DF9300D000D0CDB7DEB77C01162F8C
:1005200029833A834B835C83FC0184810E946502AA
:1005300060E0F70182810E94841C0E942A1D6B01E9
:100540000E945E028F3F39F00E942A1D6C197D09BE
:1005500068357240A8F3812F80640E9459028C8113
:100560000E9459028B810E9459028A810E9459027D
:1005700089810E945902112311F087E801C085E9A1
:100580000E9459021C3011F40E945E0210E00E9489
:100590005E02F701858387FF04C01F3F11F01F5FD4
:1005A000F6CF0F900F900F900F90DF91CF911F918A
:1005B000FF90EF90DF90CF900895EF92FF920F930E
:1005C0001F93CF93DF93EC0189017C0189EBE81A3B
:1005D0008DEFF80AFE01E35BFD4F8081833039F037
:1005E00089E0440F551F661F771F8A95D1F79A013E
:1005F000AB0168E1C7010E948302882329F0C65B32
:10060000DD4F86E0888329C08EEF0E945902F801F1
:1006100080818EBD818132961E5F0DB407FEFDCFB5
:100620008EBDE017F10711F08191F7CF0DB407FEF1
:10063000FDCF8FEF0E9459028FEF0E9459020E9456
:100640005E02F70185838F71853061F0C65BDD4FF7
:1006500083E18883C7010E947B02C7010E947B025D
:1006600080E004C0C7010E947B0281E0DF91CF914E
:100670001F910F91FF90EF900895CF92DF92EF922C
:10068000FF920F931F93CF93DF93EC0169018C01CD
:10069000095B1D4FFC01E35BFD4F8081833039F026
:1006A00089E0440F551F661F771F8A95D1F79A017D
:1006B000AB0161E1C8010E948302882321F0C65B7F
:1006C000DD4F84E019C00E942A1D7B010E945E025A
:1006D000F80185838F3F59F40E942A1D6E197F0906
:1006E0006D32714098F3C65BDD4F81E105C08E3FEE
:1006F00049F0C65BDD4F8FE08883C8010E947B0212
:1007000080E01FC08FEF8EBDF601D601A150BE4F15
:100710009FEF0DB407FEFDCF8EB59EBD8193EA1706
:10072000FB07B9F70DB407FEFDCF8EB58C93F8012A
:1007300015820E945E020E945E02C8010E947B0236
:1007400081E0DF91CF911F910F91FF90EF90DF90AB
:10075000CF9008951F920F920FB60F9211242F93EE
:100760003F934F935F936F937F938F939F93AF9339
:10077000BF93EF93FF938091B900887F803609F48F
:100780009CC068F5883209F45BC090F4803109F4AC
:1007900054C038F4882309F4F6C0883009F44DC0F9
:1007A000F6C0883109F44CC0803209F45DC0EFC056
:1007B000803409F468C048F4803309F455C08833A4
:1007C00009F0E5C08093D402D8C0803509F44FC049
:1007D000883509F45DC0883409F0D9C0D6C088399D
:1007E00009F4C7C0A8F4883709F467C038F488361C
:1007F00009F463C0803709F460C0C9C0883809F4BF
:10080000B8C0803909F45FC0803809F0C0C05BC04F
:10081000803B09F486C038F4803A09F466C0883A0F
:1008200009F47FC0B4C0803C09F4A7C0883C09F437
:10083000A4C0883B09F48AC0AAC08091B10210C04C
:100840009091D3028091D202981770F5E091D30273
:1008500081E08E0F8093D302F0E0EE54FD4F808153
:100860008093BB0085EC86C08093D4028EC0E0915B
:10087000D30281E08E0F8093D3028091BB00F0E021
:10088000EE54FD4F80839091D3028091D2026EC0CE
:10089000E091D30281E08E0F8093D3028091BB0060
:1008A000F0E0EE54FD4F80838091D50281116DC040
:1008B00081E08093B00284EA61C083E08093D60235
:1008C0001092AF02CFCF8091AF02803208F051C0BA
:1008D000E091AF0281E08E0F8093AF028091BB0068
:1008E000F0E0E157FD4F8083BDCF85EC8093BC00E5
:1008F0001092D6028091AF02803230F4E091AF02C4
:10090000F0E0E157FD4F10826091AF0270E0E0919E
:100910008D02F0918E028FE892E009951092AF025D
:1009200036C084E08093D60210928C0210928B0223
:10093000E0918902F0918A02099580918B028111E0
:1009400005C081E080938B0210926902E0918C02D5
:1009500081E08E0F80938C02F0E0E759FD4F80819B
:100960008093BB0090918C0280918B02981708F4C1
:1009700079CF85E88093BC000AC085EC8093BC00E9
:100980001092D60204C01092D4020E942801FF9156
:10099000EF91BF91AF919F918F917F916F915F91F7
:1009A0004F913F912F910F900FBE0F901F90189570
:1009B00063ED71E08AE296E00E945C1B10924402B3
:1009C00080914402811103C00E940402F9CF08956E
:1009D000AF92BF92CF92DF92EF92FF920F931F934D
:1009E000CF93DF93CDB7DEB72A970FB6F894DEBF6B
:1009F0000FBECDBF7C01FC01848195816FE070E06A
:100A00000E94BB29D62EC62E6FEC71E0CE01019656
:100A10000E94921B8E01095F1F4F4AE0B8018D2D85
:100A200090E00E94492EF80101900020E9F73197EB
:100A3000AF01401B510BB801CE0101960E948A1AEA
:100A4000CE0101960E947D16B12C00E08FE0A82E09
:100A50000E94D804802F90E00196F701248135810F
:100A6000A89EA001A99E500D11244217530720F4FF
:100A70008A9D102D112401C0122FDB2CD116F8F401
:100A80008D2D90E0F701248135818217930750F472
:100A9000208131812115310529F0F901E80FF91F75
:100AA000608101C060E0E091FD02F091FE020190E2
:100AB000F081E02D8DEF92E00995D394DFCF63EDC7
:100AC00071E08DEF92E00E94ED1B0F5FFFE0BF0E23
:100AD000C01608F0BDCF63ED71E08AE296E00E9497
:100AE0005C1B10924402CE0101960E94731B2A9651
:100AF0000FB6F894DEBF0FBECDBFDF91CF911F912F
:100B00000F91FF90EF90DF90CF90BF90AF9008953E
:100B1000CF92DF92EF92FF920F931F93CF93DF93C9
:100B2000CDB7DEB766970FB6F894DEBF0FBECDBF68
:100B30008C01DC011D921D921D921C9213975196FF
:100B40001C921E92509753961C921E925297FC0133
:100B5000148A158A168A178A58961D921D921D921C
:100B60001C925B970E944D15F22EF32FE42F252F38
:100B7000F9863A874B875C876D877E878F87988B4E
:100B80004E855F85822F90E070E0A62FB0E06D016A
:100B900021E0C21AD108272F30E02C153D0544F47E
:100BA0002E5C3E4FD9012C91820F911D7F5FF3CFB8
:100BB000633030F09A0123703327232B09F4019618
:100BC0002DE631E0429FB001439F700D529F700DA2
:100BD00011249B0121593342BA016D5C774076950F
:100BE000679576956795620F731F9B01280F391FD4
:100BF000A8E1B0E00E9444349B01AC012F0D311DEF
:100C0000411D511DACE3B0E00E9402349B01AC01D8
:100C10002F0F311D411D511D0E940234DC01CB01FB
:100C20008E0F911DA11DB11D80589C4BA249B74C40
:100C3000F80180839183A283B3830E944D15F62E21
:100C400029833A834B835C836D837E838F8398876C
:100C50002E813F81C90168EE73E00E94CF2940E3F5
:100C6000460F40930001E4E6F0E0BF010E94CF2967
:100C700090E3960F90930101C901BF010E94CF2913
:100C8000EAE0F0E0BF010E94CF2990E3960F909335
:100C90000201C901BF010E94CF2990E3980F9093F0
:100CA00003018DE280930401F9E0FF1520F080E359
:100CB0008093050108C08F2D6AE00E94AF2990E360
:100CC000980F909305013AE08F2D632F0E94AF2972
:100CD000905D909306018DE2809307012C812A306C
:100CE00010F480E305C0822F632F0E94AF29805D3E
:100CF000809308018AE0D82E822F6D2D0E94AF29A3
:100D0000905D9093090110920A0160E071E0780112
:100D100024E0E20EF11CC7010E945C1B63ED71E050
:100D2000CE0141960E94921B6BED71E0CE010196BF
:100D30000E94921BAE014F5E5F4FBE016F5F7F4FFF
:100D4000C7010E940119CE0101960E94731BCE01BA
:100D500041960E94731B0E944D1529833A834B8351
:100D60005C836D837E838F8398872A3010F480E3C1
:100D700005C0822F6D2D0E94AF29805D80930B01ED
:100D80003AE0822F632F0E94AF29905D90930C016F
:100D90008AE380930D012A812A3010F480E305C094
:100DA000822F632F0E94AF29805D80930E013AE06D
:100DB000822F632F0E94AF29905D90930F018AE3E9
:100DC000809310012B812A3010F480E305C0822F1C
:100DD000632F0E94AF29805D80931101822F6AE00A
:100DE0000E94AF29905D90931201109213016BE065
:100DF00071E078018AE0E80EF11CC7010E945C1BDB
:100E000063ED71E0CE0141960E94921B6FEC71E0A0
:100E1000CE0101960E94921BAE014F5E5F4FBE0154
:100E20006F5F7F4FC7010E940119CE0101960E949A
:100E3000731BCE0141960E94731B8091130691E0B3
:100E40009093D7028093F9021092D8021092FA027E
:100E500061E08CE993E00E94B6010E944E1461E0CB
:100E600070E080E090E00E94F01C209113068091D9
:100E7000D6028111FCCF81E08093D6028093D50207
:100E80009FEF9093D4021092D3028093D20280936A
:100E9000B1029091B102822F880F892B8093B10209
:100EA0008091B002813061F41092B0028091B10261
:100EB0008093BB008091BC0083FDF8CF85EC01C01E
:100EC00085EE8093BC008091D6028130E1F3809161
:100ED000D302823018F48091D30201C082E0A2EBE9
:100EE000B2E029E432E0F9019E2F921B981718F422
:100EF0009D919193F9CF10923D0280933C028CE931
:100F000093E00E946A01F82E8CE993E00E946A0146
:100F100060E070E07F2D862B972BBC01990F880B2A
:100F2000990B0E9480322AE037ED43E25CE30E9495
:100F3000DF326B017C01E894F7F82DEC3CEC4CE4DB
:100F40005DE3C701B6010E947932181644F4D80156
:100F50005496CD92DD92ED92FC92579705C0F80120
:100F6000148A158A168A178A80913E0290913F0250
:100F7000A0914002B0914102F801808F918FA28F21
:100F8000B38F6DED71E08DEF92E00E94ED1B0E943A
:100F9000D80480912A0690912B06009719F00E94A0
:100FA000192E03C060E070E0CB01D80151967C930C
:100FB0006E935097809142029091430253969C9376
:100FC0008E93529763ED71E08AE296E00E945C1B7B
:100FD0001092440266960FB6F894DEBF0FBECDBFE6
:100FE000DF91CF911F910F91FF90EF90DF90CF9005
:100FF0000895CF93DF93EC0163ED71E004960E94B6
:10100000921B63ED71E0CE010A96DF91CF910C94B3
:10101000921B0F931F93CF93DF93EC018B0161EE33
:1010200071E00E94921BF8014085518564817581B1
:10103000CE010E948A1A63EE71E0CE010E942C1B41
:10104000F8014685578562857385CE010E948A1A0C
:1010500065EE71E0CE010E942C1BF8016089718958
:10106000CE010E94FC1A67EE71E0CE010E942C1B9B
:10107000F80162897389CE010E94FC1A69EE71E061
:10108000CE010E942C1BF801448955896689778915
:10109000CE010E94CB1A6BEE71E0CE010E942C1B98
:1010A000F801408D518D628D738DCE010E94CB1A57
:1010B0006DEE71E0CE010E942C1BCE01DF91CF912D
:1010C0001F910F910895CF93DF931F92CDB7DEB795
:1010D000BE016F5F7F4F0E94F411019719F489815F
:1010E00090E002C08FEF9FEF0F90DF91CF910895B6
:1010F0000C960C9463088F929F92AF92BF92CF92FE
:10110000DF92EF92FF92CF93DF93EC018C8C9D8C5A
:10111000AE8CBF8CC88CD98CEA8CFB8C0C960E9450
:10112000630897FD08C08C8E9D8EAE8EBF8EC88ED4
:10113000D98EEA8EFB8EDF91CF91FF90EF90DF90FA
:10114000CF90BF90AF909F908F9008953F924F9215
:101150005F926F927F928F929F92AF92BF92CF9247
:10116000DF92EF92FF920F931F93CF93DF93CDB750
:10117000DEB728970FB6F894DEBF0FBECDBF4C0187
:10118000DC0112968C911297806812968C931297BC
:101190001C964D905D906D907C901F971696AD902B
:1011A000BC901797411451046104710461F4D50196
:1011B00018968D919D910D90BC91A02D8D839E834D
:1011C000AF83B88704C04D825E826F827886CD80FF
:1011D000DE80EF80F884BFEFCB1ADB0AEB0AFB0A54
:1011E000F501808D918DA28DB38D8C159D05AE0579
:1011F000BF0528F482E0C82ED12CE12CF12C9E01F1
:101200002F5F3F4FB701A601C5010E947A1E87FDDF
:1012100020C0882341F089819A81AB81BC81892BD0
:101220008A2B8B2B51F08D819E81AF81B885C8169A
:10123000D906EA06FB0679F60CC00FEF1FEF2FEF79
:101240003FE0B701A601C5010E94171E382E81118B
:1012500002C0312C1BC0411451046104710451F0CF
:1012600097018601B301A201C5010E94171E8111D9
:1012700008C0EFCFD5011896CD92DD92ED92FC9289
:101280001B97F401C486D586E686F786832D2896BB
:101290000FB6F894DEBF0FBECDBFDF91CF911F9187
:1012A0000F91FF90EF90DF90CF90BF90AF909F9005
:1012B0008F907F906F905F904F903F900895611551
:1012C000710579F0FB0101900020E9F73197AF013A
:1012D000461B570BDC01ED91FC910280F381E02D60
:1012E000099480E090E00895FC01AC01455F5F4FF8
:1012F00080E090E8899F90011124982F9695922B79
:101300002191892F820FE417F50799F708954F92DD
:101310005F926F927F928F929F92AF92BF92CF9285
:10132000DF92EF92FF920F931F93CF93DF93EC0125
:101330004A015B014C845D846E847F84A881AA236A
:1013400009F48CC0411551056105710529F41C860D
:101350001D861E861F867CC0A3FF0BC0488D598D3D
:101360006A8D7B8D481559056A057B0508F476C0A2
:1013700014C0A5FF12C0EE81FF818681978125E010
:10138000880F991F2A95E1F7A0E0B0E08417950730
:10139000A607B70708F462C05BC0488959896A8903
:1013A0007B89EE81FF81848190E009968A019B010F
:1013B0000150110921093109082E04C036952795DD
:1013C000179507950A94D2F775016401B1E0CB1A1D
:1013D000D108E108F10804C0F694E794D794C794C3
:1013E0008A95D2F7C016D106E206F30620F0452B07
:1013F000462B472B81F4A6FF05C0848D958DA68DC5
:10140000B78D04C08C8D9D8DAE8DBF8D8C879D87D3
:10141000AE87BF8704C0C01AD10AE20AF30A8E0160
:10142000045F1F4FC114D104E104F10489F04C851D
:101430005D856E857F8598018E819F810E947A1ED1
:1014400091E0C91AD108E108F10818165CF306C04A
:10145000888A998AAA8ABB8A81E005C04C865D8603
:101460006E867F8680E0DF91CF911F910F91FF9074
:10147000EF90DF90CF90BF90AF909F908F907F9034
:101480006F905F904F900895FF920F931F93CF93AB
:10149000DF931F92CDB7DEB78C01FC018089918963
:1014A000A289B3899C01AD0175E0569547953795A2
:1014B00027957A95D1F7F22FFF70FF2E11F0611169
:1014C00014C0BE016F5F7F4FC8010E94F4118130CC
:1014D00019F080E090E01AC0F80180899189A28912
:1014E000B3894F96A11DB11D04C08096A11DB11DE9
:1014F000F801808B918BA28BB38BF8018681978149
:101500008796F0E2FF9E800D911D11240F90DF91D0
:10151000CF911F910F91FF900895FC01808181115F
:1015200014C080E2DF01982F1D929A95E9F7778326
:101530006683DB0115969C91903119F0903229F465
:1015400080E4808381E08283089580E008958F9213
:101550009F92AF92BF92FF920F931F93CF93DF930F
:10156000EC01F22E80E2DE011D928A95E9F7FB0183
:10157000868197819F838E835D834C83848C958C39
:10158000A68CB78C88869986AA86BB86FA01EF70EE
:10159000FF27DC01979635E0EE0FFF1F3A95E1F744
:1015A000AD014E0F5F1FDA011B962C9123FF03C084
:1015B000188280E063C09C012E0F3F1FD901D29694
:1015C0002C9127712883DA011B963C91387111F414
:1015D000286028830B832F2D227319F02881217115
:1015E00039F72F2D2F702A83DC0193964D915D9151
:1015F0006D917C9196974C8B5D8B6E8B7F8BE80FFA
:10160000F91F43AD54AD60E070E0BA01552744279F
:10161000DF01AF5BBF4F0D911C9120E030E0402B0C
:10162000512B622B732BF4FE0AC041155105610545
:101630007105F9F00E94EA1E81111BC0B9CF4C8FD1
:101640005D8F6E8F7F8FED5BFF4F80819181A281D7
:10165000B381888F998FAA8FBB8FF5FE0EC0488DFE
:10166000598D6A8D7B8DCE010E948709811105C03D
:101670009FCF8A8180688A83F0CF81E0DF91CF910C
:101680001F910F91FF90BF90AF909F908F90089502
:101690002F923F924F925F926F927F928F929F9282
:1016A000AF92BF92CF92DF92EF92FF920F931F9370
:1016B000CF93DF93CDB7DEB72D970FB6F894DEBF8B
:1016C0000FBECDBF8C017B01FA01418152815A834B
:1016D0004983DB018C91807709F4E7C2D8018C91B2
:1016E0008111E3C29081937009F4D3C289819A81F8
:1016F0000C966DE070E00E94BB2988248394860ECE
:101700002F831F01FD86EC861A87098740E050E091
:10171000BA01C7010E948709E12CB12CF12C912C50
:1017200010E000E018866101B6E0CB0ED11C9DE010
:10173000A92EAC85BD8550964D905D906D907C90A6
:101740005397A301920185E05695479537952795C4
:101750008A95D1F72B833C834D835E834B805C80DD
:1017600061E0CD010E94440A009741F4AC85BD853B
:1017700011968C91882309F495C097C2FC012081B1
:10178000253E11F021110AC0111102C0EB80BC806E
:10179000181508F41F5F211105C084C0181508F43E
:1017A0007BC202C0253EF1F12E32E1F1DC011B9635
:1017B0003C911B973F3009F056C0011108C026FF2D
:1017C000B8CF022F0F711D96FC90902E07C09A94EF
:1017D000291128C0FC012585F21224C0492D50E0B2
:1017E00041505109A49E9001A59E300D11244981BC
:1017F0005A8124173507B0F4FC0160E0653018F415
:101800008181928107C06B3018F48481958102C078
:1018100086819781A981BA812A173B0729F4892BF0
:1018200009F487CF00E085CF8F3F910509F0D0F70D
:101830004FEB480F4A3110F0782F02C070E2780F5A
:10184000C9010196D10113964D915C911497DA016B
:10185000A20FB31F2C913FEB320F3A3108F4205EF8
:101860007213E0CF1BC233FDDDCF002341F0B1E0A6
:101870009B121BC20E9474098F1117C20FC04BE04C
:1018800050E0B6010E942A2B892B09F052CFF101BA
:10189000808180FF03C0E1E0E8874BCFFF81F7FF45
:1018A000EFC103C28F818274823409F0FEC111231B
:1018B00059F04E2C5B2C08C060E08C859D850E9401
:1018C000440A892B21F01F5F1815B0F306C0AC85C0
:1018D000BD8511968C918111E8C1612CB2E07B2EFF
:1018E00074C0EC85FD85808185FDDFC1808991898B
:1018F000A289B38981159E4FAF41B10508F0D5C1CA
:101900008C859D850E94A608882309F4CEC1AC85EC
:10191000BD851696ED91FC9117971C96CD90DD90A4
:10192000ED90FC901F97B2E0CB1AD108E108F108C6
:10193000048004C0CC0CDD1CEE1CFF1C0A94D2F702
:1019400080899189A289B389C80ED91EEA1EFB1E1F
:1019500025E0B701A601CF0180960E94D41D5C014D
:10196000009709F4A2C1FC0193011192215030406B
:10197000E1F701E0AC85BD851696ED91FC911797D6
:101980008281081730F190E0A0E0B0E06C017D01A9
:10199000A9E0CC0CDD1CEE1CFF1CAA95D1F7AC8590
:1019A000BD8550964D915D916D917C9153974C0DF5
:1019B0005D1D6E1D7F1D50964D935D936D937C93C1
:1019C000539782818230D0F4105F181508F489CFC4
:1019D00015C0A081B18112960D90BC91A02D9501EA
:1019E000B701A601400F511D611D711DCF01FD0101
:1019F0000995882309F459C10F5FBCCFB885BB2373
:101A000009F475C0F101D58002E010E07EE7C72E31
:101A10007101F6E0EF0EF11C42C0B3E0BD1510F409
:101A200053E0D52E94E09D0D822F8F70E92FF0E0CA
:101A30008A3008F055C0805DE20DF31D868344E0D6
:101A4000369527954A95E1F79150D91668F3F1013B
:101A5000ED0DF11DC68240E050E0BA018C859D85F8
:101A60000E94870961E08C859D850E94440A009749
:101A7000C9F1DC012C912223D1F11B962C9123FD7D
:101A8000F1CF4BE050E0BC01C7010E942A2B892B0B
:101A900049F70F5F1F4F0436110509F406C1D10144
:101AA00011964D915C9112979801240F351F139652
:101AB000ED91FC9114974E0F5F1FE417F50709F4A1
:101AC000ACCFC90165E0880F991F6A95E1F7280F2F
:101AD000391F8191082E000C990B28273927EDCF4B
:101AE000895CAACFEC85FD8581818111DEC0A201D0
:101AF00060E070E025E0440F551F661F771F2A95B0
:101B0000D1F78C859D850E948709882309F4CDC073
:101B10000FEF080DA02E1FE06101B6E0CB0ED11C27
:101B20009DE0B92EAA2009F461C060E08C859D85F6
:101B30000E94440A7C01892B09F4B7C0AC85BD859D
:101B40001696ED91FC91179780A1816080A32A2DB4
:101B5000A01201C02064F701208313871486C601F8
:101B60002B870E947409D7011D968C931D975B9655
:101B70001C921E925A97F101438154812B852F713B
:101B800030E021503109B29EC001B39E900D112466
:101B9000F70160E029813A818217930740F4DA0166
:101BA000A80FB91F2C91022E000C330B0CC021E0A2
:101BB00030E0A981BA818A179B0711F420E030E058
:101BC000319521953109653018F43283218307C09E
:101BD0006B3018F43583248302C0378326836F5F0C
:101BE000019632966D30B1F6AA949CCFEC85FD85B6
:101BF000408951896289738985E076956795579503
:101C000047958A95D1F72A0160E0CF010E94440AE6
:101C1000009709F44AC020E2DC011D922A95E9F7F9
:101C2000F10136962BE0DC0101900D922A95E1F747
:101C3000F10120812871DC011C962C931C9721E274
:101C400038E251963C932E93509740E058E01F960F
:101C50005C934E931E9753963C932E9352975996AE
:101C60003C932E93589757965C934E935697AC851A
:101C7000BD851696ED91FC91179780A1816080A398
:101C80002F81A2016C857D8589859A850E94A70A8E
:101C90000DC08824839434CD10E086CD6F5F3296DA
:101CA0006D3009F446CD9C01A9CD80E02D960FB68C
:101CB000F894DEBF0FBECDBFDF91CF911F910F9182
:101CC000FF90EF90DF90CF90BF90AF909F908F905C
:101CD0007F906F905F904F903F902F900895CF939B
:101CE000DF93EC01262F4C895D896E897F898E8177
:101CF0009F8180960E94D41D009761F02C813D81C8
:101D00002F70332745E0220F331F4A95E1F7820FEA
:101D1000931F02C080E090E0DF91CF910895CF93B0
:101D2000DF93FC012081211102C081E031C0EC0170
:101D3000828187FF25C061E0CF010E946F0EFC0108
:101D4000892B29F489818160898380E021C0808189
:101D5000853EC1F3888183FF08C0888D998DAA8D47
:101D6000BB8D848F958FA68FB78F8C8D9D8DAE8DFB
:101D7000BF8D938F828FB58BA48B8A818F778A8357
:101D80008E819F8180960E94801D8823D9F2CDCFBD
:101D9000DF91CF9108952F923F924F925F926F9271
:101DA0007F928F929F92AF92BF92CF92DF92EF92EB
:101DB000FF920F931F93CF93DF93EC015B014A01D6
:101DC000888183FF0EC08A8181FF0BC082FF0FC014
:101DD000488D598D6A8D7B8DCE010E9487098111B6
:101DE00006C08981816089838FEF9FEF0BC1A401B9
:101DF00060E070E088899989AA89BB89809590956F
:101E0000A095B09584179507A607B70750F364010E
:101E10001E018CE0280E311C088919892A893B890A
:101E2000C114D10409F4D3C08E819F81B901A801E6
:101E300029E076956795579547952A95D1F7DC0166
:101E40001396FC90F4221170F11034C001151105A5
:101E500089F54C855D856E857F8541155105610548
:101E6000710569F091010E947A1E87FDBACF811138
:101E700021C0CE010E94A60881111CC0B2CF8C8D5A
:101E80009D8DAE8DBF8D0097A105B10579F4CE0172
:101E90000E94A608882309F4A4CF8C859D85AE8571
:101EA000BF858C8F9D8FAE8FBF8F04C08C879D8721
:101EB000AE87BF87EE81FF814C855D856E857F850E
:101EC0004250510961097109048004C0440F551F33
:101ED000661F771F0A94D2F780899189A289B389F6
:101EE000480F591F6A1F7B1F4F0D511D611D711D2A
:101EF0000115110521F4C114B2E0DB06B0F580E054
:101F000092E0801B910B76018C159D0508F47C01F5
:101F10000115110579F4488859886A887B88888D6D
:101F2000998DAA8DBB8D481659066A067B0610F05E
:101F300025E001C021E0CF0180960E94D41D0097CA
:101F400009F44FCFA701B501800F911F0E94372BD5
:101F50000E0D1F1D0115124049F58E819F8180963F
:101F60000E94801D811122C03CCF83A194A1A5A114
:101F7000B6A184179507A607B70741F410A28FEF03
:101F80009FEFDC0183A394A3A5A3B6A38E819F81B9
:101F9000DC01ED91FC910280F381E02D9501099522
:101FA000882309F41ECFE12C82E0F82E88899989D4
:101FB000AA89BB898E0D9F1DA11DB11D888B998B90
:101FC000AA8BBB8BAE0CBF1CCE18DF0825CF888D2B
:101FD000998DAA8DBB8D80179107A207B30738F49E
:101FE000088F198F2A8F3B8F8A8180688A838A8124
:101FF00083FD02C0C40106C0CE010E948F0E811174
:10200000F9CFEFCEDF91CF911F910F91FF90EF901D
:10201000DF90CF90BF90AF909F908F907F906F9008
:102020005F904F903F902F900895CF93DF93EC01F6
:102030000E948F0E1882DF91CF9108952F923F92C8
:102040004F925F926F927F928F929F92AF92BF92C8
:10205000CF92DF92EF92FF920F931F93CF93DF9374
:10206000CDB7DEB7E4970FB6F894DEBF0FBECDBF95
:102070006C017A01922E19821A82DC018C918111F5
:102080006BC1FB018081807709F466C1FA01808110
:102090008F32C9F47F0181918F32E1F3DB01169613
:1020A0006D917C911797811104C0C6010E948D0A21
:1020B00058C1CE0101960E948D0A882309F44CC1B3
:1020C000BE016F5F7F4F5E01B2E3AB0EB11CF70143
:1020D0002FEFE21AF20A80818032C9F3FDA3ECA34C
:1020E000DF019D012E1B3F0B8D918823D9F08F328C
:1020F000C9F08C3509F430C1982F977F923209F4DA
:102100002BC18A3309F428C1982F9F7B9C3309F493
:1021100023C192EC980F923008F41EC180528F3583
:1021200000F31AC1AF01420F531FCA017C01DC0149
:102130002D91CD012AAB2032C9F32F32B9F39A0188
:102140002E1B3F0B4E175F0741F0DA019E91AD0148
:102150009E32A9F3903299F303C080E090E006C06C
:10216000C9012F3F310511F00CF0F6C09BA38AA3E3
:10217000DE01979620E22D93AA15BB05D9F7DF0162
:102180009D012E1B3F0B4D914E32D1F34032C1F3D6
:102190003CAB2BAB51E0232B09F050E08C010150FC
:1021A000110938F09F01200F311FD9012C912E32D7
:1021B000B1F76EA027E0722E312C512C812C38E023
:1021C000432EABA9BCA9A817B9070CF080C02BA956
:1021D0003CA92E0F3F1FD9014C91403209F460C039
:1021E0004E3239F42BA93CA90217130709F058C045
:1021F00004C04232A1F04C3791F026ED240F263076
:1022000010F44D3261F426EC240F263040F025EA1C
:10221000240F233020F02FED240F2E3530F0ABA902
:10222000BCA9A017B10781F43FC02BA93CA9201776
:102230003107D1F1731410F1242F3FE9340F3A31F3
:1022400040F44052842809C07314C0F050E04FE5B8
:102250002FE521542A3108F4542822242394230CF6
:1022600027E230E02C0F3D1F230D311DD9014C9387
:10227000B6E0B215B8F0622C322C22C03AE07316E8
:1022800009F46CC0ABA9BCA90A171B070CF466C003
:102290001CAB0BAB5AE0752EA8E03A2EB0E14B2EEA
:1022A00050E00EC0322C0CC02AE0721609F456C061
:1022B0001CAB0BAB2AE0722E38E0332E40E1442EEB
:1022C0002BA93CA92F5F3F4F3CAB2BAB7ACF6EA223
:1022D0008FA1803209F440C0552339F0582011F401
:1022E000882D01C082E089A314C081E089A38EA15A
:1022F00090E0E7E2F0E0EC0FFD1FE80FF91F2EE79A
:102300002083E8E2F0E0EC0FFD1FE80FF91F21E366
:102310002083FAA9FF23C1F021E0AE014F5D5F4F9A
:10232000C6010E94480B8823B9F0F601DE01119620
:1023300080E201900D928A95E1F7C6010E94151086
:10234000BE016F5F7F4FC3CE292DAE014F5D5F4F42
:10235000C6010E94480B05C080E003C06EA250E099
:10236000B7CFE4960FB6F894DEBF0FBECDBFDF91B6
:10237000CF911F910F91FF90EF90DF90CF90BF9082
:10238000AF909F908F907F906F905F904F903F9015
:102390002F900895EF92FF920F931F93CF93DF93A7
:1023A000E82EF62EC7E0D0E0042F10E098010C2EA6
:1023B00002C0359527950A94E2F7B9016170772735
:1023C0008E2D0E94841C61E08F2D0E94841C60E091
:1023D0008F2D0E94841C219748F7DF91CF911F9188
:1023E0000F91FF90EF9008958F929F92AF92BF92BE
:1023F000DF92EF92FF920F931F93CF93DF93EC0145
:102400007B019881992309F442C08A8180FF3FC0F3
:1024100093FF48C0488D598D6A8D7B8D0889198935
:102420002A893B89401B510B620B730B42305105CB
:102430006105710590F1488959896A897B898A010A
:10244000117095FD48C0EE81FF81D3804A015B0188
:1024500089E0B694A794979487948A95D1F7D82069
:102460000115110509F064C0D11062C0452B462B3F
:10247000472B09F442C04C855D856E857F859E01A2
:10248000245F3F4FCF010E947A1E87FF46C089819B
:10249000826089838FEF9FEF89C0452B462B472BA6
:1024A00051F610C095FFC7CFEE81FF8186819781DD
:1024B00025E0880F991F2A95E1F728893989821725
:1024C000930719F480E090E06DC0488959896A89C2
:1024D0007B898A01117099E07695679557954795A4
:1024E0009A95D1F7EE81FF81848D958DA68DB78D5C
:1024F000480F591F6A1F7B1F39C096FF05C0848D86
:10250000958DA68DB78D04C08C8D9D8DAE8DBF8DA4
:102510008C879D87AE87BF870BC0811109C08881DA
:10252000807709F4B4CF81E090E021E030E03CC056
:10253000EE81FF814C855D856E857F854250510916
:1025400061097109048004C0440F551F661F771F7D
:102550000A94D2F780899189A289B389480F591FBB
:102560006A1F7B1F4D0D511D611D711D8E819F8145
:1025700020E080960E94D41D009709F488CFFC01CA
:10258000E00FF11F8081F701808388899989AA89EA
:10259000BB890196A11DB11D888B998BAA8BBB8B22
:1025A00081E090E020E030E0821B930BDF91CF913F
:1025B0001F910F91FF90EF90DF90BF90AF909F9091
:1025C0008F9008958F929F92AF92BF92CF92DF9299
:1025D000EF92FF92CF93C82F1092C90381E090E051
:1025E000A0E0B0E08093CC039093CD03A093CE0302
:1025F000B093CF0384EC93E09093E6038093E503DC
:102600001092E4038FEF9FEFDC018093E703909338
:10261000E803A093E903B093EA03CC2331F1C5307A
:1026200008F0DCC020E040E050E0BA0184EE93E026
:102630000E94D41D009709F4D1C020E1C29F800DF3
:10264000911D11244097FC01E254FE4F20812F7709
:1026500009F0C4C0389680809180A280B380811434
:102660009104A104B10421F4B9C0812C912C54012E
:1026700020E0B501A40184EE93E00E94D41DFC018A
:10268000892B09F4ABC0838594858115924009F0AC
:10269000A5C08089823009F0A1C0468557854115C3
:1026A000510509F49BC025852093C6038FEF820F47
:1026B0008093C70380E091E0291751F031E0380F93
:1026C000393019F48093C80389C0990F832FF4CF50
:1026D0008093C803C688D788C114D10419F0E12CAF
:1026E000F12C04C0C4A0D5A0E6A0F7A0C092D003EE
:1026F000D092D103E092D203F092D303D501C4016A
:10270000840F951FA11DB11D8093D8039093D90309
:10271000A093DA03B093DB03218932893093CB0392
:102720002093CA03CC0CDD1CEE1CFF1CC80ED91E66
:10273000EA1EFB1EC092E003D092E103E092E203A6
:10274000F092E30355E0220F331F5A95E1F7215031
:102750003E4F232F33272695C20ED31EE11CF11CBA
:10276000C092D403D092D503E092D603F092D7035F
:10277000238934892115310521F0C901A0E0B0E099
:1027800004C080A191A1A2A1B3A1B501A4014C19DB
:102790005D096E097F09480F591F6A1F7B1F009052
:1027A000C80304C076956795579547950A94D2F764
:1027B000DB01CA010196A11DB11D8093DC0390933A
:1027C000DD03A093DE03B093DF03453F8FE058079E
:1027D0006105710528F48CE08093C90380E017C07F
:1027E000453F5F4F6105710510F480E10DC084A580
:1027F00095A5A6A5B7A58093E0039093E103A093C8
:10280000E203B093E30380E28093C90381E0CF91B8
:10281000FF90EF90DF90CF90BF90AF909F908F9000
:1028200008958BEE95E00E94151064EC73E08BEE3A
:1028300095E00E948D0A882361F09091EB059077D6
:1028400039F02BEE35E03093FC022093FB02089523
:1028500080E0089520913006309131062F5F3F4F80
:10286000309331062093300640919A0350919B0398
:102870004115510519F0421753071CF46FEE71E032
:1028800005C08130924044F061E172E08DEF92E04A
:102890000E94ED1B80E0089581E008952091FA02E6
:1028A0009091F902213208F04AC08091D60281113C
:1028B000FCCF32E03093D60231E03093D5023FEFC7
:1028C0003093D4021092D3022093D202A9EDB2E049
:1028D00042EB52E0FA013E2F341B321718F43D91BF
:1028E0003193F9CF1092B1022091B102990F922B3E
:1028F0009093B1029091B002913061F41092B002C5
:102900009091B1029093BB009091BC0093FDF8CFE1
:1029100095EC01C095EE9093BC009091D602923058
:10292000E1F39091D4029F3F79F08091D4028032FC
:1029300041F08091D402803331F084E005C081E021
:1029400003C082E001C083E01092D8021092FA0224
:102950001092D70208951F93CF93DF931F92CDB7A4
:10296000DEB7162F9091130621E02093D7029093A3
:10297000F9021092D8021092FA02682F8CE993E0C3
:1029800079830E94B6017981672F8CE993E00E94D8
:10299000B601612F8CE993E00E94B6010F90DF91A0
:1029A000CF911F910C944E14CF93DF93C0E2D6E0E9
:1029B00061E089810E94B41C60E089810E94841CCE
:1029C00061E088810E94841C61E089810E94841CEE
:1029D00060E08981DF91CF910C94B41C60E080911C
:1029E00021060E94B41C61E0809120060E94841C94
:1029F000809121060E945B1C0197D1F360E08091D9
:102A000020060C94841C0F931F93CF93DF931F9287
:102A1000CDB7DEB7482F00E216E061E0F801818112
:102A200049830E94B41C61E0F80181810E94841CEA
:102A300061E0F80180810E94841C60E0F8018181DE
:102A40000E94841C60E0F80180810E94841C4981FE
:102A5000F801608181810F90DF91CF911F910F91DB
:102A60000C94CA110F931F93CF93DF931F92CDB78E
:102A7000DEB7482F00E216E061E0F801818149836A
:102A80000E94B41C4981F801608181810F90DF911F
:102A9000CF911F910F910C94CA11DF92EF92FF9288
:102AA0000F931F93CF93DF93CDB7DEB728970FB661
:102AB000F894DEBF0FBECDBF80912906882309F4AC
:102AC00046C084EE8093BC008091BC0087FFFCCFA1
:102AD00080ED8093BB0084EC8093BC008091BC00AF
:102AE00087FFFCCF1092BB0084EC8093BC008091E8
:102AF000BC0087FFFCCF84EE8093BC008091BC00BB
:102B000087FFFCCF81ED8093BB0084EC8093BC00F9
:102B10008091BC0087FFFCCFE2E2F6E094EC90935A
:102B2000BC008091BC0087FFFCCF8091BB008193EB
:102B300076E0E932F70799F784E88093BC0080914A
:102B4000BC0087FFFCCF84E98093BC0069C080EDA6
:102B50000E9403150E94EE1480E00E9432150E942C
:102B6000EE1481ED0E9403150E94EE1400E010E0C7
:102B700060E0809121060E94B41C87E0E82EF12CD1
:102B8000D12C61E0809120060E94841C8091210656
:102B90000E945B1C99270E2C01C0880F0A94EAF74B
:102BA000D82A60E0809120060E94841C81E0E81A07
:102BB000F10838F7F801E05EF94FD28261E08091C8
:102BC00021060630110549F00E94B41C60E0809196
:102BD00020060E94841C60E008C00E94B41C60E0D3
:102BE000809120060E94841C61E0809121060E9451
:102BF000841C61E0809120060E94841C60E080912A
:102C000020060E94841C60E0809121060E94B41C72
:102C10000F5F1F4F0730110509F0AACF0E94D4148F
:102C200080912206482F4695469546954E70942FE2
:102C3000990F990F490F8F70480F80912306382FF5
:102C40003695369536953E70932F990F990F390F1B
:102C50008F70380F80912406282F2F7087FF08C0AF
:102C600085FB992790F98CE0989F200D112409C0CD
:102C70008073869586958695982F990F990F890F61
:102C8000280FE09125066091260670912706809115
:102C90002806562F5695569556955E70952F990F86
:102CA000990F590F6F70560F672F66956695669549
:102CB0006E70962F990F990F690F7F70670F982F7D
:102CC00092959F708F707AE0979F800D112490E00D
:102CD0008053984F9F838E83782F8F819E2F2896C5
:102CE0000FB6F894DEBF0FBECDBFDF91CF911F911D
:102CF0000F91FF90EF90DF900895CF93DF93FC0149
:102D000044815581608171818DEF92E00E94AC1702
:102D1000EC0161ED71E08DEF92E00E945F098C0F94
:102D20009D1FDF91CF9108957F928F929F92AF92D6
:102D3000BF92CF92DF92EF92FF920F931F93CF93A8
:102D4000DF93CDB7DEB7A0970FB6F894DEBF0FBE06
:102D5000CDBF7C018B0119821A82DC018C9181111B
:102D600004C0F8011082712CE2C0D70113969C9127
:102D700091113CC0807631F08FE2D8018C9311968E
:102D80001C9231C060E0C7010E946F0E7C01009769
:102D900051F3FC0148E090E020E05EE28081803267
:102DA000D1F0283039F4B801690F711DDB015C9353
:102DB0009F5F40E130818FEB830F8A3130F4D70180
:102DC0001C968C91842309F0305EB801690F711D47
:102DD000DB013C939F5F2F5F31962B30F9F6F801B2
:102DE000E90FF11D108277247394A1C0F70180854B
:102DF0009185A285B385668177819E012F5F3F4FC4
:102E000069010097A105B10539F4C9010E948D0A35
:102E1000882309F4A6CF0FC020E2F60111922A956B
:102E2000E9F720E1298321E02B8378876F838D8F59
:102E30009E8FAF8FB8A3AA24A3949DE0B92EF7016B
:102E400083818A1508F48DCF8A2C912CD701149692
:102E50004D915C9115974819590960E070E085E043
:102E6000440F551F661F771F8A95D1F7C6010E9430
:102E70008709782E882309F474CF60E0C6010E9488
:102E8000440AFC01892B09F46CCF83858F3009F04B
:102E900068CF80818F7190E08816990609F061CF24
:102EA000B1E08B1A9108B89C9001B99C300D1124A7
:102EB000B801620F731F4F0180E0D401853028F400
:102EC00011964D915C9112970BC08B3028F414969B
:102ED0004D915C91159704C016964D915C91179792
:102EE0004115510591F02E303105C8F42F5F3F4F49
:102EF0004F37510508F04FE3DB014D93BD018F5F64
:102F0000B2E08B0E911C8D30C1F62E30310538F4B5
:102F1000808186FF04C0D801A20FB31F1C92D80184
:102F20001D961C92808186FD02C0A39488CF872DB8
:102F3000A0960FB6F894DEBF0FBECDBFDF91CF9144
:102F40001F910F91FF90EF90DF90CF90BF90AF90C7
:102F50009F908F907F900895CF92DF92EF92FF9293
:102F60000F931F93CF93DF936C017A018B01C0E025
:102F7000D0E0CE15DF0589F0D8016D918D01D60125
:102F8000ED91FC910190F081E02DC6010995892B0E
:102F900011F47E0102C02196ECCFC701DF91CF91E1
:102FA0001F910F91FF90EF90DF90CF900895FC015B
:102FB000918D828D981761F0828DDF01A80FB11D70
:102FC0005D968C91928D9F5F9F73928F90E0089594
:102FD0008FEF9FEF0895FC01918D828D981731F04E
:102FE000828DE80FF11D858D90E008958FEF9FEFA2
:102FF0000895FC01918D228D892F90E0805C9F4F78
:10300000821B91098F73992708958DEF92E00E949A
:10301000F91721E0892B09F420E0822F0895FC01A3
:10302000848DDF01A80FB11DA35ABF4F2C91848D51
:1030300090E001968F739927848FA689B7892C9386
:10304000A089B1898C9180648C93938D848D981321
:1030500006C00288F389E02D80818F7D80830895EA
:10306000EF92FF920F931F93CF93DF93EC0181E0D8
:10307000888F9B8D8C8D981305C0E889F989808194
:1030800085FD24C0F62E0B8D10E00F5F1F4F0F73D0
:103090001127E02E8C8DE8120CC00FB607FCFACF7A
:1030A000E889F989808185FFF5CFCE010E940F184C
:1030B000F1CF8B8DFE01E80FF11DE35AFF4FF08237
:1030C0000B8FEA89FB898081806207C0EE89FF89C6
:1030D0006083E889F98980818064808381E090E061
:1030E000DF91CF911F910F91FF90EF900895CF93B3
:1030F000DF93EC01888D8823C9F0EA89FB89808100
:1031000085FD05C0A889B9898C9186FD0FC00FB6D1
:1031100007FCF5CF808185FFF2CFA889B9898C9112
:1031200085FFEDCFCE010E940F18E7CFDF91CF9141
:1031300008950E94051881110C94040208958330AB
:1031400081F028F4813099F08230A1F00895873021
:10315000A9F08830B9F08430D1F4809180008F7D5F
:1031600003C0809180008F7780938000089584B59C
:103170008F7702C084B58F7D84BD08958091B000A3
:103180008F7703C08091B0008F7D8093B000089549
:103190003FB7F8948091370690913806A091390690
:1031A000B0913A0626B5A89B05C02F3F19F00196AD
:1031B000A11DB11D3FBFBA2FA92F982F8827820FBD
:1031C000911DA11DB11DBC01CD0142E0660F771F0D
:1031D000881F991F4A95D1F708950E94252BCF93F8
:1031E000DF93EC0188819981009711F00E944E2CA9
:1031F000198218821D821C821B821A82DF91CF9154
:1032000008952F923F924F925F926F927F928F928A
:103210009F92AF92BF92CF92DF92EF92FF920F9365
:103220001F93CF93DF9300D000D0CDB7DEB7FC0162
:10323000448055804114510409F413C1FB0164809A
:1032400075806114710409F40CC17A016B019C83CF
:103250008B83FA01A480B580A618B708FC01008111
:103260001181A114B104C1F4F60160817181C8011A
:103270000E947F2B5C01892B09F4F3C0F701608168
:10328000718144815581C5010E94372BF70104816A
:1032900015810A0D1B1DE8CFB7FE02C0480106C00C
:1032A000FB01208031804201C80148C0F6016081E5
:1032B0007181C4010E947F2B2C01892B29F13201DD
:1032C00068187908A301B401C8010E94372B060DC4
:1032D000171DF7016081718144815581C8010E94E9
:1032E000372BF70184819581080F191FF60184801F
:1032F0009580840C951CEB81FC81848195818A0DDD
:103300009B1D95838483D2CFB401C8010F900F9089
:103310000F900F90DF91CF911F910F91FF90EF9041
:10332000DF90CF90BF90AF909F908F907F906F90E5
:103330005F904F903F902F900C945B2BB1010E94B7
:103340007F2B009729F0860D971D8A0C9B1CF6CFCA
:103350008414950409F485C0EB81FC8182819381FA
:103360008815990578F4B4016F5F7F4FC8010E94FA
:103370005B2A009709F475C0EB81FC8191838083FF
:1033800093828282EB81FC810481158101501109B5
:1033900017FD67C0F601248035802114310409F43B
:1033A00060C0EB81FC81648075806114710409F454
:1033B00058C06214730408F454C00615170518F0B9
:1033C000830101501109EB81FC8140805180C201D1
:1033D00088248A94982C9201200F311F28173907CE
:1033E00058F0F6016081718129833A830E947F2B16
:1033F00029813A81009761F597FC33C0280C391C6C
:10340000C201820D931DA30142195309BC018A0D0B
:103410009B1D0E94402BEB81FC81848195818A0D4C
:103420009B1D9583848320813181F901E80FF91F69
:103430001082EB81FC8180819181F7016081718133
:1034400044815581880D991D0E94372B84019ECFA0
:10345000AC01441955090417150708F04A010196F3
:10346000BDCF0F900F900F900F90DF91CF911F91D4
:103470000F91FF90EF90DF90CF90BF90AF909F9013
:103480008F907F906F905F904F903F902F90089516
:10349000FB0144815581FC012481358124173507C6
:1034A00078F080819181009759F0FB0160817181F2
:1034B0006115710529F00E94622B21E0892B09F02A
:1034C00020E0822F08950F931F93CF93DF93EC0199
:1034D00088819981009729F02A813B812617370737
:1034E00088F48B016F5F7F4F0E945B2A009761F029
:1034F000998388831B830A832C813D81232B11F4BC
:10350000FC01108281E001C080E0DF91CF911F912A
:103510000F910895EF92FF920F931F93CF93DF9334
:10352000FC01248135816115710511F480E019C019
:1035300041155105A9F07B01EC018A01020F131F0F
:10354000B8010E94631A882389F3288139818C810C
:103550009D81B701820F931F0E945B2B1D830C83FB
:1035600081E0DF91CF911F910F91FF90EF9008952F
:10357000CF93DF93EC01FB01448155816081718120
:103580000E948A1A811103C0CE010E94EF18CE0159
:10359000DF91CF910895EF92FF920F931F93CF93F6
:1035A000DF93CDB7DEB764970FB6F894DEBF0FBEDA
:1035B000CDBF7C01CB01BA018E010F5F1F4F22E00E
:1035C00044E00E94992BBC01FC0101900020E9F726
:1035D0003197AF01481B590BC7010E948A1A6496A4
:1035E0000FB6F894DEBF0FBECDBFDF91CF911F9114
:1035F0000F91FF90EF900895EF92FF920F931F931A
:10360000CF93DF93CDB7DEB728970FB6F894DEBF20
:103610000FBECDBF7C01CB014AE08E010F5F1F4F73
:10362000B8010E94492EF80101900020E9F7319776
:10363000AF01401B510BB801C7010E948A1A28969E
:103640000FB6F894DEBF0FBECDBFDF91CF911F91B3
:103650000F91FF90EF9008956115710551F0FB01F6
:1036600001900020E9F73197AF01461B570B0C94EE
:103670008A1A80E00895EF92FF920F931F93CF93E1
:10368000DF93EC017B018A01BA010E94631A811168
:1036900004C0CE010E94EF1807C01D830C83B70140
:1036A000888199810E945B2BCE01DF91CF911F9180
:1036B0000F91FF90EF900895CF93DF93EC01611588
:1036C000710559F0FB0101900020E9F73197AF0136
:1036D000461B570B0E943B1B02C00E94EF18CE01F5
:1036E000DF91CF910895FC01808191810C944E2C43
:1036F000FB01DC0111961C921E9213961C921E92E5
:10370000129715961C921E9214978617970749F0E8
:10371000608171816115710521F0448155810C949E
:103720003B1B0895FC0111821082138212821582C4
:1037300014826115710551F0FB0101900020E9F739
:103740003197AF01461B570B0C943B1B0895BF925A
:10375000CF92DF92EF92FF920F931F93CF93DF935D
:103760007C016B018A01E9012417350720F4812FC0
:103770008901C42FD82F63ED71E0C7010E94921B0D
:10378000D60114968D919C91159708171907D0F4BE
:103790008C179D0708F4EC01D601ED91FC9111976F
:1037A000EC0FFD1FB08010824D915C91BA01600F4B
:1037B000711FC7010E945C1BD601ED91FC91EC0FBB
:1037C000FD1FB082C701DF91CF911F910F91FF9034
:1037D000EF90DF90CF90BF9008950F931F93CF93FA
:1037E000DF93EC010E945F098C0161ED71E0CE0175
:1037F0000E945F09800F911FDF91CF911F910F9160
:1038000008950C945F091F920F920FB60F92112426
:103810002F933F934F935F936F937F938F939F93D8
:10382000AF93BF93EF93FF938DEF92E00E940F1839
:10383000FF91EF91BF91AF919F918F917F916F9188
:103840005F914F913F912F910F900FBE0F901F905E
:1038500018951F920F920FB60F9211242F938F93EA
:103860009F93EF93FF93E0910D03F0910E038081FE
:10387000E0911303F091140382FD12C090818091B6
:1038800016038F5F8F7320911703821751F0E09119
:103890001603F0E0E350FD4F958F8093160301C0AF
:1038A0008081FF91EF919F918F912F910F900FBE8B
:1038B0000F901F901895CF93DF93282F30E0F901D8
:1038C000E255FF4F8491F901E656FF4FD491F9017B
:1038D000EA57FF4FC491CC2391F081110E949F18A9
:1038E000EC2FF0E0EE0FFF1FE458FF4FA591B491CD
:1038F000EC91ED2381E090E021F480E002C080E0D3
:1039000090E0DF91CF9108951F93CF93DF93282FFD
:1039100030E0F901E255FF4F8491F901E656FF4F7F
:10392000D491F901EA57FF4FC491CC23C9F0162F67
:1039300081110E949F18EC2FF0E0EE0FFF1FEE5850
:10394000FF4FA591B4918FB7F894111105C09C91C8
:10395000ED2FE095E92302C0EC91ED2BEC938FBFA6
:10396000DF91CF911F910895CF93DF9390E0FC01F9
:10397000E656FF4F2491FC01EA57FF4F84918823BC
:1039800061F190E0880F991FFC01E859FF4FC59144
:10399000D491FC01EE58FF4FA591B491611109C07B
:1039A0009FB7F8948881209582238883EC912E23F9
:1039B0000BC0623061F49FB7F8943881822F8095F4
:1039C00083238883EC912E2B2C939FBF06C08FB747
:1039D000F894E8812E2B28838FBFDF91CF91089533
:1039E0008F929F92AF92BF92CF92DF92EF92FF920F
:1039F0006B017C010E94C8184B015C01C114D10409
:103A0000E104F104F1F00E94C818DC01CB0188192F
:103A10009909AA09BB09883E9340A105B10570F335
:103A200021E0C21AD108E108F10888EE880E83E08F
:103A3000981EA11CB11CC114D104E104F10419F7B2
:103A4000DDCFFF90EF90DF90CF90BF90AF909F9031
:103A50008F9008952FB7F8946091330670913406D3
:103A600080913506909136062FBF08951F920F92D0
:103A70000FB60F9211242F933F938F939F93AF9381
:103A8000BF938091330690913406A0913506B09192
:103A900036063091320623E0230F2D3720F40196AD
:103AA000A11DB11D05C026E8230F0296A11DB11D61
:103AB000209332068093330690933406A093350604
:103AC000B09336068091370690913806A09139065A
:103AD000B0913A060196A11DB11D809337069093CF
:103AE0003806A0933906B0933A06BF91AF919F91E3
:103AF0008F913F912F910F900FBE0F901F901895AF
:103B00008F929F92AF92BF92EF92FF921F93CF93AB
:103B1000DF93DC012C9120FF3BC0EC0189819A816D
:103B20007D01B7E0EB0EF11CDC01ED91FC914B81C6
:103B30005C816D817E810280F381E02D9701099582
:103B4000182F811102C010E024C0888181FD04C0BB
:103B500088818E7F88831DC0A981BA81ED91FC91F7
:103B600011971C968D909D90AD90BC901F974B81A6
:103B70005C816D817E81480D591D6A1D7B1D02800F
:103B8000F381E02D9701CD0109958111E1CFDBCFC4
:103B900011E0812FDF91CF911F91FF90EF90BF90A7
:103BA000AF909F908F900895CF92DF92EF92FF9207
:103BB0001F93CF93DF93EC016A017B01122F8B815E
:103BC0009C81AD81BE8184179507A607B70709F1CF
:103BD000CE010E94801D811103C080E090E01FC0D3
:103BE00012FF06C01882CB82DC82ED82FE8211C0F9
:103BF00089819A81DC01ED91FC910190F081E02DA9
:103C00009E01295F3F4FB701A60109958111EACFB7
:103C1000E4CF13708881182B1883CE010796DF91AB
:103C2000CF911F91FF90EF90DF90CF9008958F92EA
:103C30009F92AF92BF92CF92DF92EF92FF920F933B
:103C40001F936A017B0148015901FC012581203243
:103C500051F5448955896689778997018601E7E09E
:103C60003695279517950795EA95D1F7400F511F7F
:103C7000621F731F23E080960E94D41D009711F4E9
:103C800080E02DC0E894C7F8DD24EE24FF24CC0C9E
:103C9000DD1CCC0CDD1CFC01EC0DFD1D8082918235
:103CA000A282B3821BC0203159F7FC014489558997
:103CB000668977894D0D511D611D711D23E0809628
:103CC0000E94D41D0097E1F2DD24EE24FF24CC0CE9
:103CD000DD1CFC01EC0DFD1D9182808281E01F91B5
:103CE0000F91FF90EF90DF90CF90BF90AF909F909B
:103CF0008F900895CF92DF92EF92FF920F931F93D0
:103D0000CF93DF93EC016A017B0189018D818032C1
:103D100051F58C899D89AE89BF89E7E076956795D5
:103D200057954795EA95D1F7480F591F6A1F7B1F92
:103D300022E0CE0180960E94D41D009711F48FEFEF
:103D400040C0E894C7F8DD24EE24FF24CC0CDD1C31
:103D5000CC0CDD1CFC01EC0DFD1D80819181A2814C
:103D6000B381BF701DC0803151F74C895D896E8968
:103D70007F894D0D511D611D711D22E0CE01809680
:103D80000E94D41D0097D9F2DD24EE24FF24CC0C30
:103D9000DD1CFC01EC0DFD1D80819181A0E0B0E0F7
:103DA000488D598D6A8D7B8D481759076A077B07A7
:103DB00038F0F80180839183A283B38381E001C04E
:103DC00080E0DF91CF911F910F91FF90EF90DF90F6
:103DD000CF9008959F92AF92BF92CF92DF92EF92D1
:103DE000FF920F931F93CF93DF9300D000D0CDB7F6
:103DF000DEB75C016A017B019E012F5F3F4FB70177
:103E0000A601C5010E947A1E982E87FF02C080E09D
:103E10001EC000E010E09801B701A601C5010E9494
:103E2000171E8823A1F3F5014085518562857385AE
:103E3000C416D506E606F70620F4C086D186E286CB
:103E4000F386C980DA80EB80FC809110D5CF0F908B
:103E50000F900F900F90DF91CF911F910F91FF90D6
:103E6000EF90DF90CF90BF90AF909F900895AF926A
:103E7000BF92CF92DF92EF92FF920F931F93CF9357
:103E8000DF9300D000D0CDB7DEB7FC018081811177
:103E900053C09091EB05907709F44EC04091FB051B
:103EA0005091FC056091FD057091FE054F715527FD
:103EB00066277727452B462B472BF1F55F0100E05E
:103EC00010E0C090FB05D090FC05E090FD05F0905F
:103ED000FE0560E08BEE95E00E94440AFC01892B10
:103EE00059F19081992341F19E3211F400E0E9CF1C
:103EF000953EE1F3838583FD17C0B701A60185E0F8
:103F000076956795579547958A95D1F70023B1F037
:103F1000CF0149835A836B837C830E947409498152
:103F20005A81181309C00AC08F3001F796FFC9CF14
:103F3000092F0F711585C5CF80E006C021E06BEE1B
:103F400075E0C5010E94A70A0F900F900F900F9087
:103F5000DF91CF911F910F91FF90EF90DF90CF9065
:103F6000BF90AF900895CF93DF9390912906992346
:103F700049F194EE9093BC009091BC0097FFFCCF68
:103F800090ED9093BB0094EC9093BC009091BC009A
:103F900097FFFCCF8093BB0084EC8093BC008091A2
:103FA000BC0087FFFCCF6093BB0084EC8093BC0017
:103FB0008091BC0087FFFCCF84E98093BC00DF9137
:103FC000CF910895C62FD82F80ED0E9403150E942F
:103FD000EE148D2F0E9432150E94EE148C2F0E9439
:103FE00032150E94EE14DF91CF910C94D4148F926D
:103FF0009F92AF92BF920F931F93CF93DF93CDB752
:10400000DEB7A1970FB6F894DEBF0FBECDBF19A2E1
:10401000423008F44AE08E010F5D1F4F842E912C30
:10402000A12CB12CA50194010E94E033E62FB90127
:10403000CA0101501109EA3014F4E05D01C0E95CE5
:10404000D801EC93232B242B252B61F7B8018DEF9E
:1040500092E00E945F09A1960FB6F894DEBF0FBEF2
:10406000CDBFDF91CF911F910F91BF90AF909F90E7
:104070008F900895CF93DF93CDB7DEB7C958D1099C
:104080000FB6F894DEBF0FBECDBF789484B58260C2
:1040900084BD84B5816084BD85B5826085BD85B5EC
:1040A000816085BD80916E00816080936E0010926A
:1040B00081008091810082608093810080918100E5
:1040C0008160809381008091800081608093800076
:1040D0008091B10084608093B1008091B0008160D4
:1040E0008093B00080917A00846080937A00809100
:1040F0007A00826080937A0080917A008160809358
:104100007A0080917A00806880937A001092C100D2
:10411000E0910D03F0910E0382E08083E0910903AA
:10412000F0910A031082E0910B03F0910C038FECE5
:10413000808310921503E0911103F091120386E041
:104140008083E0910F03F091100380818061808370
:10415000E0910F03F0911003808188608083E091EB
:104160000F03F0911003808180688083E0910F033A
:10417000F091100380818F7D808360E270E08AE29D
:1041800096E00E94631A80E090E00E94AD33909325
:1041900043028093420244E050E062E070E0CE01CE
:1041A00001960E949D3389819A81AB81BC81809365
:1041B0003E0290933F02A0934002B093410280914F
:1041C0002106823101F5809120068331E1F481E0FE
:1041D0008093290661E082E10E94841C61E083E112
:1041E0000E94841C8091B9008E7F8093B9008091D9
:1041F000B9008D7F8093B9008CE08093B80085E092
:104200008093BC0007C01092290661E080912006CF
:104210000E94B41C10923D0210923C021092D802EF
:104220001092FA021092D60281E08093D502109289
:10423000B00261E082E10E94841C61E083E10E949F
:10424000841C8091B9008E7F8093B9008091B90061
:104250008D7F8093B90088E48093B80085E48093D3
:10426000BC0080E090E1A0E0B0E080931406909361
:104270001506A0931606B09317068AE090E0A0E01A
:10428000B0E08093180690931906A0931A06B09395
:104290001B0682E090E0A0E0B0E080931C069093C3
:1042A0001D06A0931E06B0931F0660E070E185E036
:1042B0000E94AB146FE17CE380E00E94AB1410928B
:1042C000110610920E0682E196E090930C06809300
:1042D0000B0684E080930D060E942A1D8B0161E08D
:1042E00080910D060E94B41C61E080910D060E9431
:1042F000841C2A9A229A239A259A80E480930F0696
:104300000E9465027AE0F72E8FEF0E945902FA941C
:10431000F110FACF20E030E0A90160E08BE096E0F8
:104320000E948302813049F00E942A1D601B710B9C
:10433000613D774078F381E05AC02AEA31E040E0FD
:1043400050E068E08BE096E00E948302853011F433
:1043500081E00CC064E0F62E0E945E02809310069D
:10436000FA94F110F9CF8A3A59F482E08093110659
:1043700080911106823069F0C12CD12C76010EC0DB
:104380000E942A1D601B710B613D7740B0F282E0F4
:104390002EC0C12CD12CE12C50E4F52E20E030E0D1
:1043A000A90167E38BE096E00E948302A7019601D2
:1043B00069E28BE096E00E948302882349F00E9424
:1043C0002A1D601B710B613D774040F38AE00FC0EE
:1043D00080911106823001F520E030E0A9016AE306
:1043E0008BE096E00E948302882341F088E080936E
:1043F0000E068BE096E00E947B0238C00E945E02AF
:10440000807C803C19F483E0809311060E945E0258
:104410000E945E020E945E028BE096E00E947B0298
:1044200084E080930F068BEE95E00E94151081E0EA
:104430000E94E212882349F064EC73E08BEE95E071
:104440000E948D0A882391F006C080E00E94E2124B
:104450008111F2CF0BC08091EB05807739F08BEEA4
:1044600095E09093FC028093FB0221C080910E06A0
:10447000882339F064E670E080E090E00E94F01C50
:10448000F9CF8091C903811107C064E670E080E034
:1044900090E00E94F01CF9CF8091EB05811107C0DC
:1044A00064E670E080E090E00E94F01CF9CF10928A
:1044B000A8031092A9031092AA031092AB031092C2
:1044C000B9031092B8031092BB031092BA03109272
:1044D000BC031092BD031092BE031092BF03109252
:1044E000C0031092C1031092C2031092C30368EE7E
:1044F00073E080E090E00E94F01C809144028823E9
:1045000009F4D2C46AE276E0CE0184589F4F0E943B
:10451000781B60E871E0CE0101960E94921BBE01FB
:104520006F5F7F4FCE0184589F4F0E94481A182F0B
:10453000CE0101960E94731B1123F1F163ED71E02E
:10454000CE0101960E94921B60E871E0CE018D962B
:104550000E94921BAE014F5F5F4FBE01635D7F4FB4
:10456000CE0184589F4F0E940119CE018D960E9462
:10457000731BCE0101960E94731BEE968EAD9FAD0C
:10458000EE97009729F00E94192E6B017C0103C061
:10459000C12CD12C7601860182E090E00E942A1481
:1045A000882329F0B60180E090E00E94CB3310937D
:1045B0004302009342026BC463E871E0CE010196AE
:1045C0000E94921BBE016F5F7F4FCE0184589F4FA8
:1045D0000E94481A182FCE0101960E94731B1123C6
:1045E00009F44DC063ED71E0CE018D960E94921BDF
:1045F00063E871E0CE0101960E94921BAE01435D1B
:104600005F4FBE016F5F7F4FCE0184589F4F0E9466
:104610000119CE0101960E94731BCE018D960E9456
:10462000731BEE968EAD9FADEE97009729F00E941A
:10463000F72D6B017C0103C0C12CD12C7601CE5724
:10464000DF4FC882D982EA82FB82C258D04086E01E
:1046500090E00E942A14882349F044E050E062E090
:1046600070E0CE018E579F4F0E94B333C0923E023E
:10467000D0923F02E0924002F092410208C466E804
:1046800071E0CE0101960E94921BBE016F5F7F4FC9
:10469000CE0184589F4F0E94481A182FCE010196D0
:1046A0000E94731B112301F1CE0101960E94F907AC
:1046B000CE0101960E948805BE016F5F7F4FCE013B
:1046C0008D960E940908CE018D960E94E804CE01C5
:1046D0008D960E94731BCE010B960E94731BCE0118
:1046E00005960E94731BD3C368E871E0CE01019662
:1046F0000E94921BBE016F5F7F4FCE0184589F4F77
:104700000E94481A182FCE0101960E94731B112394
:1047100009F42CC16AE871E08DEF92E00E94ED1B74
:104720000E94D80463ED71E0CE018D960E94921B29
:1047300068E871E0CE0101960E94921BAE01435DD4
:104740005F4FBE016F5F7F4FCE0184589F4F0E9425
:104750000119CE0101960E94731BCE018D960E9415
:10476000731B28E030E040E050E0BE0164587F4F0A
:10477000CE0101960E94A71B89819A810E94192E61
:104780006B017C01CE0101960E94731B2EE030E08C
:1047900048E050E0BE0164587F4FCE0101960E9470
:1047A000A71B89819A810E94192E2B013C01CE0101
:1047B00001960E94731B1D821E821C821B828EE149
:1047C00091E09A8389830E94111440E050E0BA017D
:1047D0008BEE95E00E948709CE0105960E94371F57
:1047E000882309F4BCC0BE01635D7F4FCE010596EE
:1047F0000E94941667E971E0CE018D960E94522BBB
:10480000892B09F4A7C04AE050E060E070E0CE01D7
:104810008D960E94E62C4B015C016C157D058E0582
:104820009F0508F497C08D8183FF94C04D8D5E8DE8
:104830006F8D78A18D899E89AF89B88D48175907EA
:104840006A077B0709F486C063ED71E0CE018359E6
:104850009F4F0E94921BCE0105960E9463088A30EA
:1048600089F02E968FAF2E972F961FAE2F9741E08F
:1048700050E0BE01635B7F4FCE0183599F4F0E9482
:104880008A1AE9CF20E130E04AE050E0BE016359E6
:104890007F4FCE01835B9F4F0E94A71B2F968EAD4B
:1048A0009FAD2F970E94192EAB01BC01CE01835BF7
:1048B0009F4FCA57DF4F4883C658D040C957DF4F74
:1048C0005883C758D040C857DF4F6883C858D04076
:1048D000C757DF4F7883C958D0400E94731BCA570F
:1048E000DF4F4881C658D040C957DF4F5881C7585D
:1048F000D040C857DF4F6881C858D040C757DF4FF6
:104900007881C958D040441655066606770628F4C3
:104910008C149D04AE04BF0429F0C814D904EA0421
:10492000FB0490F4BE0163597F4FCE01835B9F4F20
:104930000E94781BCE01835B9F4F0E94E804CE014A
:10494000835B9F4F0E94731BCE0183599F4F0E9430
:10495000731B69CFCE0105960E9415103DCF65EA05
:1049600071E08DEF92E00E94ED1B91C261E871E071
:10497000CE0101960E94921BBE016F5F7F4FCE0158
:1049800084589F4F0E94481A182FCE0101960E940A
:10499000731B112309F41AC18E01035D1F4F63EDD0
:1049A00071E0C8010E94921B61E871E0CE0101969E
:1049B0000E94921BA801BE016F5F7F4FCE018458F9
:1049C0009F4F0E940119CE0101960E94731BC801DE
:1049D0000E94731B26E030E040E050E0BE016458C6
:1049E0007F4FC8010E94A71B60EB71E0CE010196CA
:1049F0000E94921BB801CE0101960E94B81ABC0118
:104A0000CE01835B9F4F0E94781B2F968EAD9FAD8A
:104A10002F970E94192E6B017C01CE01835B9F4F63
:104A20000E94731BCE0101960E94731BC8010E9455
:104A3000731B2CE030E046E050E0BE0164587F4F2D
:104A4000C8010E94A71B60EB71E0CE0101960E9495
:104A5000921BB801CE0101960E94B81ABC01CE018A
:104A6000835B9F4F0E94781B2F968EAD9FAD2F9733
:104A70000E94192E2B013C01CE01835B9F4F0E94A7
:104A8000731BCE0101960E94731BC8010E94731B09
:104A90001D821E821C821B828EE191E09A83898393
:104AA0000E94111440E050E0BA018BEE95E00E94A4
:104AB000870935EE332E40E2242ECE0105960E9462
:104AC000371F882309F4E3C1BE0163597F4FCE012C
:104AD00005960E94941667E971E0CE0183599F4FB5
:104AE0000E94522B892B09F46CC04AE050E060E030
:104AF00070E0CE0183599F4F0E94E62C5301420182
:104B0000C414D504E604F70410F4460157016815EF
:104B100079058A059B0508F454C0530142014C14E1
:104B20005D046E047F0410F4460157018616970653
:104B3000A806B90608F445C0CE0105960E941510D6
:104B40002E961FAE2E972F961FAE2F9722E0AE0106
:104B500043595F4F6BEE75E0CE01835B9F4F0E9420
:104B60001E10882301F11DA61EA62E968FAD2E972E
:104B700083FF19C060968FAD609781FF14C0AD961A
:104B80004CAD5DAD6EAD7FADAD9741155105610585
:104B9000710509F4CBC265968EAD9FAD65970E94F5
:104BA000EA1E8111C3C263EB71E08DEF92E00E94B7
:104BB000011CBE0163597F4F8DEF92E00E94ED1BF7
:104BC0007CCFCE0105960E94151077CF6EEB71E079
:104BD000CE0101960E94921BBE016F5F7F4FCE01F6
:104BE00084589F4F0E94481A182FCE0101960E94A8
:104BF000731B112309F44BC163ED71E0CE018D9657
:104C00000E94921B6EEB71E0CE0101960E94921BF6
:104C1000AE01435D5F4FBE016F5F7F4FCE01845891
:104C20009F4F0E940119CE0101960E94731BCE0175
:104C30008D960E94731B24E030E040E050E0BE01FE
:104C400064587F4FCE0101960E94A71B89819A81EB
:104C50000E94FB2D5C01CE0101960E94731B26E091
:104C600030E044E050E0BE0164587F4FCE01019631
:104C70000E94A71B89819A810E94FB2DD82ECE010C
:104C800001960E94731B28E030E046E050E0BE0130
:104C900064587F4FCE0101960E94A71B89819A819B
:104CA0000E94FB2DE82ECE0101960E94731B2AE084
:104CB00030E048E050E0BE0164587F4FCE010196DD
:104CC0000E94A71B89819A810E94FB2DF82ECE019C
:104CD00001960E94731B2CE030E04AE050E0BE01D8
:104CE00064587F4FCE0101960E94A71B89819A814B
:104CF0000E94FB2D082FCE0101960E94731B2EE00F
:104D000030E04CE050E0BE0164587F4FCE01019688
:104D10000E94A71B89819A810E94FB2D182FCE012A
:104D200001960E94731B8FEF8E0D8F3180F58FEFF0
:104D30008D0D8C3060F5C501805D9740883EE3E0C5
:104D40009E0728F59AE0C92E6C2D0E94AF29692F85
:104D5000F0E18F9F600D112486E00E94B31F8D2D1E
:104D60006C2D0E94AF29692F20E1829F600D1124D4
:104D700085E00E94B31F8E2D6C2D0E94AF29692FF4
:104D800040E1849F600D112484E00E94B31F87E1FD
:104D90008F1550F10C3340F51C3330F58AE0C82EE6
:104DA0008F2D6C2D0E94AF29692FE0E18E9F600D41
:104DB000112482E00E94B31F802F6C2D0E94AF2926
:104DC000692FF0E18F9F600D112481E00E94B31FD5
:104DD000812F6C2D0E94AF29692F20E1829F600DE9
:104DE000112480E00E94B31F60EC71E08DEF92E02F
:104DF0000E94011CB50180E090E04AE00E94F71F8C
:104E000069EC71E08DEF92E00E94011C6D2D70E065
:104E100080E090E04AE00E94F71F69EC71E08DEFBE
:104E200092E00E94011C6E2D70E080E090E04AE06C
:104E30000E94F71F6BEC71E08DEF92E00E94011C65
:104E40006F2D70E080E090E04AE00E94F71F6FEC69
:104E500071E08DEF92E00E94011C602F70E080E015
:104E600090E04AE00E94F71F6FEC71E08DEF92E056
:104E70000E94011C612F70E080E090E04AE00E94F7
:104E8000F71F61ED71E08DEF92E00E945F09CE01A6
:104E900084589F4F0E94731B63ED71E08AE296E095
:104EA0000E945C1B109244020E942A1D0091450240
:104EB0001091460220914702309148026B017C011B
:104EC000C01AD10AE20AF30A48EEC41643E0D40637
:104ED000E104F10408F427C160934502709346028F
:104EE0008093470290934802CE018D960E94F90765
:104EF000CE018D960E9488052DAD3EAD6091B80320
:104F00007091B903C901861B970B885691401816FA
:104F100019062CF0CB0188599E4F821B930BA901D7
:104F200048595E4F461B570B141615062CF0AB0163
:104F3000421B530B48565140CDA4DEA4EFA4F8A861
:104F40008090A8039090A903A090AA03B090AB030F
:104F5000C818D908EA08FB08E8E5CE16E2E0DE0644
:104F6000E104F10488F5F8E7CF16D104E104F10477
:104F700008F4D1C0261B370B37FF03C031952195AC
:104F80003109281739070CF4C901481759070CF4DF
:104F9000CA010597CCF42091BC033091BD03409128
:104FA000BE035091BF0325966CAD7DAD8EAD9FAD18
:104FB00025970E94E9299F772DEC3CEC4CE45EE3B9
:104FC0000E94562A87FDA7C00DA91EA90F3F2FEFEB
:104FD000120739F00115110509F03BC12E961FAEDD
:104FE0002E971D861E861C821B8288EE93E0A0E011
:104FF000B0E08D839E83AF83B88786E291E09A8389
:10500000898323E6AE01435B5F4F6BEE75E0CE0113
:105010000D960E941E108D85882309F446C0BE019E
:10502000635D7F4FCE0183599F4F0E940908E3962D
:105030004EAD5FADE397AF966EAD7FADAF97CE014E
:105040000D960E94CB0ECE0183599F4F0E94731B79
:1050500062ED71E0CE0101960E94011CCE010D9619
:105060000E941510BE01635D7F4FCE0183599F4F93
:105070000E94090864ED71E0CE0184589F4F0E94A0
:10508000921BBE0163597F4FCE0184589F4F0E94EF
:10509000B81A0E947D16CE0184589F4F0E94731B40
:1050A000CE0183599F4F0E94731B8DA59EA5AFA56E
:1050B000B8A98093A8039093A903A093AA03B093DF
:1050C000AB038DAD9EAD9093B9038093B803219649
:1050D0008EAD9FAD21979093BB038093BA03259625
:1050E0008CAD9DADAEADBFAD25978093BC039093C5
:1050F000BD03A093BE03B093BF0329968CAD9DADB5
:10510000AEADBFAD29978093C0039093C103A09328
:10511000C203B093C303CE01C7960E94731BCE0196
:10512000C1960E94731B0E949918E7C961E0CE01E5
:10513000835B9F4F0E946F0E5C01009709F433CD93
:105140000E947409982EF50130822E961FAE2E977C
:1051500065968EAD9FAD659780960E94801D8823D1
:1051600009F421CD61968FAD6197882309F41BCD99
:1051700069968CAD9DADAEADBFAD69970097A105A9
:10518000B10559F465966EAD7FAD6597C8010E9473
:105190008D0A882309F407CD15C0F801222D11923C
:1051A0002A95E9F740E14DA721E02FA765962EAD9E
:1051B0003FAD65973CAB2BAB2D968CAF9DAFAEAFA3
:1051C000BFAF2D978824839461968FAD6197881522
:1051D00008F4E9CCA82CB12C63964EAD5FAD639773
:1051E0004A195B0960E070E025E0440F551F661F17
:1051F000771F2A95D1F7C8010E948709882309F4EF
:10520000D2CC60E0C8010E94440AFC01892B09F459
:10521000CACC83858F3009F0C6CC2081822F8F7154
:1052200090E0A816B90609F0BECC85859812BBCCD3
:1052300030826596EEADFFAD659780A1816080A359
:1052400026FF05C0CF0180960E94801DACCC8394C0
:10525000BBCF69A97AA9A801CE01835B9F4F0E94A9
:10526000702BEDE4F0E0EC0FFD1FE00FF11F10825A
:10527000B8CE82EB93E00E94731B8CEA93E00E940D
:10528000731B8AE296E00C94731BEDEFF2E013823D
:10529000128288EE93E0A0E0B0E084839583A68339
:1052A000B78324E431E03183208325EC30E0358777
:1052B000248724EC30E03787268720EC30E0318BE0
:1052C000208B21EC30E0338B228B22EC30E0358BCD
:1052D000248B26EC30E0378B268B118E128E138EAA
:1052E000148E24E630E030939B0320939A03ECE97C
:1052F000F3E01382128284839583A683B78384E5C7
:1053000091E09183808363ED71E08AE296E00E94F0
:10531000921BE0E2F6E08FE081838EE08083E3E1A0
:10532000F6E080E48083158216821782108611864B
:10533000128613861486E4ECF3E015821092EB05D6
:105340001092EC0589E180930E06109211068CE70D
:1053500091E09183808388EA93E00C94F907991B8C
:1053600079E004C0991F961708F0961B881F7A955C
:10537000C9F780950895AA1BBB1B51E107C0AA1F5E
:10538000BB1FA617B70710F0A61BB70B881F991FE6
:105390005A95A9F780959095BC01CD01089597FB8A
:1053A000072E16F4009407D077FD09D00E94BB2980
:1053B00007FC05D03EF4909581959F4F0895709518
:1053C00061957F4F0895EE0FFF1F0590F491E02D3A
:1053D00009945058BB27AA270E94012A0C946333D2
:1053E0000E94553338F00E945C3320F039F49F3F1F
:1053F00019F426F40C9452330EF4E095E7FB0C9468
:105400004C33E92F0E94743358F3BA1762077307BD
:105410008407950720F079F4A6F50C9496330EF4E2
:10542000E0950B2EBA2FA02D0B01B90190010C01B4
:10543000CA01A0011124FF27591B99F0593F50F4CC
:10544000503E68F11A16F040A22F232F342F442724
:10545000585FF3CF469537952795A795F04053951C
:10546000C9F77EF41F16BA0B620B730B840BBAF0EC
:105470009150A1F0FF0FBB1F661F771F881FC2F757
:105480000EC0BA0F621F731F841F48F4879577956B
:105490006795B795F7959E3F08F0B0CF9395880F25
:1054A00008F09927EE0F9795879508950E94BB32D3
:1054B00008F48FEF0895A0E0B0E0E1E6FAE20C9482
:1054C0001134EC01009721F4CB010E94B92BB8C034
:1054D000FC01E60FF71F9C0122503109E217F30788
:1054E00008F4ACC0D9010D911C911197061717074C
:1054F000B0F00530110508F49FC0C8010497861765
:10550000970708F499C002501109061B170B019365
:1055100011936D937C93CF010E944E2C8DC05B0143
:10552000A01AB10A4C01800E911EA0913D06B091C7
:105530003E0640E050E0E12CF12C109709F44AC0FF
:10554000A815B905D1F56D907C901197630182E0A3
:10555000C80ED11CCA14DB0480F1A3014A195B09EF
:105560006A0182E0C80ED11C1296BC901297139665
:10557000AC91B5E0CB16D10440F0B282A383518345
:105580004083D9016D937C930AC00E5F1F4FC30106
:10559000800F911FF90191838083EB2DFA2FE11485
:1055A000F10431F0D7011396FC93EE93129744C0A7
:1055B000F0933E06E0933D063FC08D919C9111977C
:1055C0004817590708F4AC017D0112960D90BC9163
:1055D000A02DB3CF80913B0690913C06881599058C
:1055E000E1F446175707C8F4809114019091150112
:1055F000009741F48DB79EB7409118015091190161
:10560000841B950BE817F907C8F4F0933C06E09368
:105610003B06F901718360830FC0CB010E94B92B57
:105620007C01009759F0A801BE010E94372BCE01E2
:105630000E944E2CC70104C0CE0102C080E090E061
:10564000CDB7DEB7EEE00C942D3481E090E0F89415
:105650000C945334FB01DC0104C08D91019080193E
:1056600021F441505040C8F7881B990B0895FB0165
:10567000DC0102C001900D9241505040D8F70895CE
:105680006817790768F4FB01DC01E40FF51FA40F2C
:10569000B51F02C002900E9241505040D8F70895B5
:1056A0000C94372BFB01DC018D91019080190110C6
:1056B000D9F3990B0895FB01DC0101900D920020B4
:1056C000E1F70895FB01DC014150504030F08D912D
:1056D0000190801919F40020B9F7881B990B0895DF
:1056E000FB01DC014150504048F001900D92002038
:1056F000C9F701C01D9241505040E0F70895FB01E9
:1057000051915523A9F0BF01DC014D91451741117D
:10571000E1F759F4CD010190002049F04D91401579
:105720004111C9F3FB014111EFCF81E090E00197F6
:105730000895EF920F931F93CF93DF93E80147FDF6
:1057400002C034E001C034E1E42F440FFF0BF7FF47
:1057500003C0F195E195F109E32E022F2E2FAE0142
:105760000E948B2ECE01DF91CF911F910F91EF9070
:105770000895CF93DF938230910510F482E090E09A
:10578000E0913D06F0913E0620E030E0C0E0D0E040
:10579000309711F14081518148175907C0F04817DF
:1057A000590761F482819381209719F09B838A8342
:1057B0002BC090933E0680933D0626C021153105EF
:1057C00019F04217530718F49A01BE01DF01EF01E7
:1057D0000280F381E02DDCCF2115310509F1281B72
:1057E000390B2430310590F412968D919C911397CA
:1057F0006115710521F0FB019383828304C09093AE
:105800003E0680933D06FD01329644C0FD01E20F45
:10581000F31F81939193225031092D933C933AC009
:1058200020913B0630913C06232B41F42091160138
:105830003091170130933C0620933B0620911401D0
:10584000309115012115310541F42DB73EB7409136
:10585000180150911901241B350BE0913B06F09182
:105860003C06E217F307A0F42E1B3F0B281739075D
:1058700078F0AC014E5F5F4F2417350748F04E0FAC
:105880005F1F50933C0640933B068193919302C067
:10589000E0E0F0E0CF01DF91CF9108950F931F93E7
:1058A000CF93DF93009709F48CC0FC0132971382E9
:1058B000128200913D0610913E060115110581F4FA
:1058C00020813181820F931F20913B0630913C064D
:1058D0002817390779F5F0933C06E0933B0671C031
:1058E000D80140E050E0AE17BF0750F412962D915A
:1058F0003C911397AD012115310509F1D901F3CF81
:105900009D01DA013383228360817181860F971FA5
:105910008217930769F4EC0128813981260F371F1C
:105920002E5F3F4F318320838A819B8193838283C3
:10593000452B29F4F0933E06E0933D0642C01396B2
:10594000FC93EE931297ED01499159919E01240F1A
:10595000351FE217F30771F480819181840F951F41
:10596000029611969C938E938281938113969C93B9
:105970008E931297E0E0F0E0D80112968D919C9101
:105980001397009719F0F8018C01F6CF8D919C9137
:1059900098012E5F3F4F820F931F20913B0630915D
:1059A0003C062817390769F4309729F410923E060F
:1059B00010923D0602C01382128210933C0600939F
:1059C0003B06DF91CF911F910F910895A0E0B0E0C9
:1059D000ECEEFCE20C940D345C016B017A01611574
:1059E000710519F0FB0191838083E114F10429F022
:1059F000C7010297839708F0F1C0E5012196F501F0
:105A00001081812F90E00E94402E892B11F05E01C1
:105A1000F4CF1D3229F42196F501118101E007C070
:105A20001B3221F4E5012296F501118100E0E11419
:105A3000F10459F1F0E1EF16F10461F41033E1F4EF
:105A400088818F7D883569F519812296026070E121
:105A5000E72EF12C88E0E816F10439F12CF4F2E09D
:105A6000EF16F104C9F12AC08AE0E816F10479F0D2
:105A7000E0E1EE16F10411F550E1E52EF12C812C58
:105A8000912CA12C68E0B62E2CC01033C9F23AE05C
:105A9000E32EF12C4CEC842E982CA82C4CE0B42E48
:105AA00020C010E3E114F104A9F698E0E92EF12CEE
:105AB000812C912CA12C20E1B22E13C060E070E06B
:105AC00080E090E897010F2C000C440B550B0E94CE
:105AD000E03349015A0105C0812C912CA12C80E4AE
