:100000000C9468000C9490000C9490000C94900058
:100010000C9490000C9490000C9490000C94900020
:100020000C9490000C9490000C9490000C94900010
:100030000C9490000C9490000C9490000C94900000
:100040000C94D5050C9490000C949F080C94D10846
:100050000C9490000C9490000C9490000C949000E0
:100060000C9490000C9490001112131415160A0BA6
:100070000C0D0E0F00010203040500000008000231
:10008000010000030407000000000000000001025E
:100090000408102040800102040810200102040816
:1000A00010200404040404040404020202020202F4
:1000B00003030303030300000000250028002B00B6
:1000C00000000000240027002A0086010109920197
:1000D00011241FBECFEFD8E0DEBFCDBF11E0A0E0FE
:1000E000B1E0E6EDFAE102C005900D92A634B10749
:1000F000D9F722E0A6E4B1E001C01D92AA33B2070D
:10010000E1F710E0CEECD0E004C02297FE010E949F
:10011000050BCA3CD107C9F70E94D10A0C945E0DA9
:100120000C94000069E371E08FE591E00C94030DFD
:1001300086E491E00E943F054FE06FE086E491E0A5
:100140000E94CC056EE186E491E00E944B0360E1E1
:1001500086E491E00E94520362E070E086E491E060
:100160000E94FD0462E070E086E491E00E94B00528
:1001700063E086E491E00E94E40466E071E086E4D6
:1001800091E00E9416044FE051E061E086E491E0C6
:100190000E94300486E491E00C949E0468E171E0D2
:1001A00089E991E00C948609BC0189E991E00C94FD
:1001B0008609CF93DF93EC0186E491E00E94580317
:1001C00040E3BE0186E491E00E94E5038823C1F389
:1001D00041E06CE171E086E491E00E94E503882350
:1001E000B9F386E491E00E948E0386E491E0DF910A
:1001F000CF910C949E04FF920F931F93CF93DF93A4
:10020000CDB7DEB72C970FB6F894DEBF0FBECDBFCB
:100210008C016EE171E0CE0101960E94060AB801E0
:10022000CE0107960E94060ABE016F5F7F4FCE0186
:1002300007960E94970AF82ECE0107960E94980909
:10024000CE0101960E949809FF2019F00E94CE006D
:1002500003C0C8010E94D9002C960FB6F894DEBFE7
:100260000FBECDBFDF91CF911F910F91FF900895E9
:1002700026E040E855E260E070E089E991E00E9404
:100280003D0860E370E089E591E00E94C9090E94A1
:1002900098000E94CE0068EC70E080E090E00C9442
:1002A0004206809158018823E9F040915D01509108
:1002B0005E014F5F5F4F20E030E06FE571E089E560
:1002C00091E00E94A60A8FE591E00E94FB000E9447
:1002D000920069E371E089E591E00E941C0A1092A6
:1002E0005801089586E491E00E940604882369F08D
:1002F00040E36FE571E086E491E00E940A048FE537
:1003000091E00E94D4000C949200089569E371E09A
:1003100089E591E00E94060A4AE069E086E491E0FE
:100320000C94400389E591E00C949809CF93C1E0C7
:1003300089E991E00E945A07892B79F089E991E0D7
:100340000E9473078A3019F4C0935801F1CF682FC7
:1003500089E591E00E94600AEBCFCF910895CF9399
:10036000CFB7F89480918F01811127C0ECEAF0E0BB
:100370008491E8E9F0E09491E82FF0E0EE0FFF1FA0
:10038000E054FF4FA591B4918C91892321F461E051
:100390008AE00E94240761E08AE00E94EB068CB5A7
:1003A00080618CBD8CB580648CBD61E08DE00E9465
:1003B000EB0661E08BE00E94EB0680918F018F5F7E
:1003C00080938F01CFBFCF9108958EBD00000DB4F3
:1003D00007FEFDCF8EB508952CB52F7D2CBD2CB515
:1003E000237F2CBD2CB52C7F2CBD2DB521602DBDC0
:1003F000FC0181810E94240785E090E00C947C063A
:10040000FC018081918189130C942407089560E098
:100410000C94EC0161E00C94EC01EF92FF921F93BD
:10042000CF93DF931F92CDB7DEB77C0169830E9423
:1004300007026981862F8F710E94E5018FEF0E946C
:10044000E501182FC7010E940A02812F0F90DF914A
:10045000CF911F91FF90EF900895CF92DF92EF928E
:10046000FF920F931F93CF93DF9300D01F92CDB7CE
:10047000DEB78C01F22E4A835B8369830E940702F8
:100480006981862F8F7180620E94E501E82E4A8182
:10049000C42E5B81D52EF40EFC1431F0F60181914F
:1004A0006F010E94E501F8CFC8010E940A028E2D5B
:1004B0000F900F900F90DF91CF911F910F91FF90B0
:1004C000EF90DF90CF900895EF92FF921F93CF931C
:1004D000DF9300D0CDB7DEB77C014A8369830E94E9
:1004E00007026981862F8F7180620E94E501182FB3
:1004F0004A81842F0E94E501C7010E940A02812FD0
:100500000F900F90DF91CF911F91FF90EF90089582
:10051000AF92BF92DF92EF92FF920F931F93CF9310
:10052000DF9300D01F92CDB7DEB78C01FC01E580D0
:10053000F42EE41608F4FE2CF8018681811102C025
:10054000EF1801C0E12CC80129836A837B830E94D4
:1005500007022981822F0E94E501D82E6A81A62EEA
:100560007B81B72EF60EFA1431F0F50181915F010F
:100570000E94E501F8CFEE2029F080E00E94E5011D
:10058000EA94F9CFC8010E940A028D2D0F900F90B6
:100590000F90DF91CF911F910F91FF90EF90DF901F
:1005A000BF90AF900895AF92BF92DF92EF92FF920B
:1005B0000F931F93CF93DF9300D0CDB7DEB78C019D
:1005C000FC01E580F42EE41608F4FE2CF801868187
:1005D000811102C0EF1801C0E12CC80169837A8340
:1005E0000E94070281E60E94E501D82E6981A62EAD
:1005F0007A81B72EF60EFA1439F08FEF0E94E501DA
:10060000F50181935F01F7CFEE2029F08FEF0E9473
:10061000E501EA94F9CFC8010E940A028D2D0F90DE
:100620000F90DF91CF911F910F91FF90EF90DF908E
:10063000BF90AF900895EF92FF921F93CF93DF93F7
:100640001F92CDB7DEB77C0169830E9407026981E2
:10065000862F0E94E501182FC7010E940A02812FF0
:100660000F90DF91CF911F91FF90EF90089562EE70
:100670000C941B0361EE0C941B036FEF0C941B0393
:10068000FC0160834183148280E28583168285E0C9
:10069000848717820895462F6E3708F04DE765E08E
:1006A0000C946402613208F060E2FC0165830895F5
:1006B000CF93DF93EC0160E00E9400028D859E8560
:1006C0000E947C066DE1CE010E940D0281FF07C0F1
:1006D0008D859E850E947C06CE010E943A0360E0D3
:1006E000CE010E940D02482F4E7F60E0CE010E9495
:1006F000640262E0CE010E940D02E4E7F0E0E491C2
:1007000021E030E001C0220FEA95EAF7822B482F62
:1007100062E0CE01DF91CF910C946402CF93DF931E
:10072000EC0160E00E940D0281FD12C060E0CE018C
:100730000E940D02482F426060E0CE010E946402D8
:1007400065E070E080E090E0DF91CF910C9442068C
:10075000DF91CF9108950F93CF93DF93EC01222384
:1007600011F020EB01C020EACE010E948802002394
:1007700039F061E0CE01DF91CF910F910C9400022E
:10078000DF91CF910F9108950F93CF93DF93EC01F9
:1007900001E00E94AB03CE010E943D038073D9F3B8
:1007A00060E0CE010E94000240E767E0CE010E94B7
:1007B000640284FF05C0CE010E943A0380E001C0BC
:1007C00081E0DF91CF910F91089520E00C94C40354
:1007D0000F931F93CF93DF938C01EB0167E10E948E
:1007E0000D0280FD0BC0209759F0C8010E943D0307
:1007F00090E0959587958770888302C080E001C05E
:1008000081E0DF91CF911F910F91089560E070E03A
:100810000C94E803CF93DF93EC010E94D30240E7EE
:1008200067E0CE01DF91CF910C9464020F931F9388
:10083000CF93DF93EC018B012C85AB016AE00E9422
:100840002D022C85A80160E1CE010E942D024D8170
:1008500061E1CE01DF91CF911F910F910C94640261
:10086000FF920F931F93CF93DF93EC01F62E8A0133
:10087000611107C04C8550E0B80107960E94FA0C40
:1008800007C086E0861708F437C081E0681307C008
:10089000EF2DF0E0E259FF4F64912C8506C0E62F62
:1008A000F0E0E259FF4F649121E0A801CE010E94DF
:1008B0002D020F2D10E0F801E859FF4F64914D8192
:1008C000CE010E94640262E0CE010E940D02F80196
:1008D000EC58FF4F049121E030E001C0220F0A954F
:1008E000EAF7822B482F62E0CE01DF91CF911F9172
:1008F0000F91FF900C946402DF91CF911F910F91A3
:10090000FF9008951F93CF93DF93EC01162F62E0C1
:100910000E940D02E12FF0E0EC58FF4FE49141E01E
:1009200050E001C0440FEA95EAF74095482362E0A1
:10093000CE01DF91CF911F910C946402CF93DF938E
:10094000EC010E948E0360E0CE010E940D02482F50
:10095000416060E0CE010E94640240E767E0CE01A2
:100960000E94640261E0CE010E9400028F81882310
:1009700049F02C85AE01495F5F4F6AE0CE010E94CD
:100980002D0204C060E0CE010E9482046DE1CE0120
:100990000E940D0281FF05C0CE01DF91CF910C9422
:1009A0003A03DF91CF910895CF93DF93EC010E943A
:1009B000070280E50E94E50183E70E94E501CE0180
:1009C000DF91CF910C940A021F93CF93DF93EC0138
:1009D000162F66E00E940D02887F143020F4612FEC
:1009E000660F6F5F01C067E0462F482B66E0CE01BF
:1009F000DF91CF911F910C946402EF92FF920F93BD
:100A00001F93CF93DF931F92CDB7DEB77C018B018D
:100A100066E00E940D02582F577D0230110531F417
:100A200050620BE910E020E030E00DC0013011050C
:100A300029F005E510E020E030E005C0586001E451
:100A400010E020E030E0F701058716872787308B1C
:100A5000452F66E0C70159830E94640266E0C70122
:100A60000E940D0291E05981851390E0892F0F902B
:100A7000DF91CF911F910F91FF90EF9008951F93F9
:100A8000CF93DF93EC0188819981891719F061E098
:100A90000E94EB0689819881981719F061E00E9405
:100AA000EB060E94AF0160E0CE010E94000261E00F
:100AB000CE010E94EC0165E070E080E090E00E94D1
:100AC00042064CE060E0CE010E9464024FE564E023
:100AD000CE010E94640262E070E0CE010E94FD043B
:100AE000882311F081E08C8366E0CE010E940D0224
:100AF000182F60E070E0CE010E94FD04CE010E943C
:100B0000D40440E06DE1CE010E94640240E06CE15B
:100B1000CE010E94640240E767E0CE010E946402B9
:100B20006CE4CE010E944B03CE010E943703CE013C
:100B30000E943A03CE010E948E0360E0CE010E9423
:100B40000D02482F4E7F60E0CE010E9464021150DA
:100B500081E01E3F08F080E0DF91CF911F91089562
:100B60000F931F93CF93DF93EC018B0160E00E9402
:100B70000D02482F437F0115110531F00130110599
:100B800011F4486001C04C6060E0CE01DF91CF916C
:100B90001F910F910C94640220E1629FB001112417
:100BA0004F70462B64E00C9464021F920F920FB6B4
:100BB0000F9211242F933F938F939F93AF93BF93E3
:100BC0008091910190919201A0919301B091940133
:100BD0003091900123E0230F2D3720F40196A11DC1
:100BE000B11D05C026E8230F0296A11DB11D20935B
:100BF00090018093910190939201A0939301B093FF
:100C000094018091950190919601A0919701B091E6
:100C100098010196A11DB11D8093950190939601B5
:100C2000A0939701B0939801BF91AF919F918F913D
:100C30003F912F910F900FBE0F901F9018953FB7C7
:100C4000F8948091950190919601A0919701B091AF
:100C5000980126B5A89B05C02F3F19F00196A11D4C
:100C6000B11D3FBF6627782F892F9A2F620F711D04
:100C7000811D911D42E0660F771F881F991F4A95BD
:100C8000D1F708958F929F92AF92BF92CF92DF9249
:100C9000EF92FF926B017C010E941F064B015C01E9
:100CA000C114D104E104F104F1F00E94E00A0E94B1
:100CB0001F06681979098A099B09683E73408105F6
:100CC000910570F321E0C21AD108E108F10888EE1D
:100CD000880E83E0981EA11CB11CC114D104E1044C
:100CE000F10429F7DDCFFF90EF90DF90CF90BF9018
:100CF000AF909F908F9008958230910538F0880FC3
:100D0000991F880F991F05970197F1F70895789417
:100D100084B5826084BD84B5816084BD85B5826000
:100D200085BD85B5816085BDEEE6F0E0808181609E
:100D30008083E1E8F0E0108280818260808380819E
:100D400081608083E0E8F0E0808181608083E1EB76
:100D5000F0E0808184608083E0EBF0E0808181605E
:100D60008083EAE7F0E08081846080838081826014
:100D700080838081816080838081806880831092FD
:100D8000C1000895833081F028F4813099F08230D9
:100D9000A1F008958730A9F08830B9F08430D1F4FB
:100DA000809180008F7D03C0809180008F77809339
:100DB0008000089584B58F7702C084B58F7D84BD8F
:100DC00008958091B0008F7703C08091B0008F7D2F
:100DD0008093B0000895CF93DF9390E0FC01E25739
:100DE000FF4F2491FC01EE55FF4F8491882349F178
:100DF00090E0880F991FFC01E054FF4FA591B4913A
:100E00008A549F4FFC01C591D4919FB7611108C0CE
:100E1000F8948C91209582238C93888182230AC038
:100E2000623051F4F8948C91322F309583238C9357
:100E30008881822B888304C0F8948C91822B8C93B8
:100E40009FBFDF91CF9108950F931F93CF93DF93AF
:100E50001F92CDB7DEB7282F30E0F901E658FF4FDB
:100E60008491F901E257FF4F1491F901EE55FF4FBC
:100E700004910023C9F0882321F069830E94C206EF
:100E80006981E02FF0E0EE0FFF1FEA54FF4FA591BC
:100E9000B4919FB7F8948C91611103C01095812390
:100EA00001C0812B8C939FBF0F90DF91CF911F9139
:100EB0000F910895FC01818D228D90E0805C9F4F01
:100EC000821B91098F7399270895FC01918D828D62
:100ED000981731F0828DE80FF11D858D90E008950F
:100EE0008FEF9FEF0895FC01918D828D981761F02F
:100EF000828DDF01A80FB11D5D968C91928D9F5F51
:100F00009F73928F90E008958FEF9FEF089587EF82
:100F100098E0892B49F086E991E0892B29F00E941D
:100F2000F70881110C9496010895FC01848DDF016E
:100F3000A80FB11DA35ABF4F2C91848D90E001964C
:100F40008F739927848FA689B7892C93A089B1893B
:100F50008C9180648C93938D848D981306C0028845
:100F6000F389E02D80818F7D80830895CF93DF9377
:100F7000EC01888D8823C9F0EA89FB89808185FD91
:100F800005C0A889B9898C9186FD0FC00FB607FCF2
:100F9000F5CF808185FFF2CFA889B9898C9185FF33
:100FA000EDCFCE010E949507E7CFDF91CF91089555
:100FB000CF92DF92FF920F931F93CF93DF931F92F5
:100FC000CDB7DEB76C0181E0D60158968C93589767
:100FD0005B969C915B975C968C915C97981307C08D
:100FE0005096ED91FC915197808185FD2EC0F601C0
:100FF000038D10E00F5F1F4F0F731127F02EF601C6
:10100000848DF81211C00FB607FCF9CFD6015096A7
:10101000ED91FC915197808185FFF1CFC6016983E5
:101020000E9495076981EBCF838DE80FF11DE35A8C
:10103000FF4F6083D6015B960C935B975296ED91C0
:10104000FC915397808180620CC0D6015696ED9139
:10105000FC91579760835096ED91FC915197808158
:101060008064808381E090E00F90DF91CF911F91A9
:101070000F91FF90DF90CF900895BF92CF92DF92B3
:10108000EF92FF92CF93DF93EC016A017B01B22EC6
:10109000E889F98982E08083411581EE580761056E
:1010A0007105A1F060E079E08DE390E0A701960181
:1010B0000E94E10A2150310941095109569547958D
:1010C00037952795211580E1380798F0E889F98947
:1010D000108260E874E88EE190E0A70196010E941A
:1010E000E10A215031094109510956954795379533
:1010F0002795EC85FD853083EE85FF852083188E4E
:10110000EC89FD89B082EA89FB89808180618083D6
:10111000EA89FB89808188608083EA89FB898081F4
:1011200080688083EA89FB8980818F7D8083DF915D
:10113000CF91FF90EF90DF90CF90BF9008951F92D6
:101140000F920FB60F9211242F938F939F93EF93CB
:10115000FF93E091A901F091AA018081E091AF0194
:10116000F091B00182FD12C090818091B2018F5F39
:101170008F732091B301821751F0E091B201F0E03A
:10118000E756FE4F958F8093B20101C08081FF9199
:10119000EF919F918F912F910F900FBE0F901F9005
:1011A00018951F920F920FB60F9211242F933F9311
:1011B0004F935F936F937F938F939F93AF93BF935F
:1011C000EF93FF9389E991E00E949507FF91EF91DA
:1011D000BF91AF919F918F917F916F915F914F914F
:1011E0003F912F910F900FBE0F901F90189589E996
:1011F00091E00E945A0721E0892B09F420E0822F18
:10120000089510929C0110929B0188EE93E0A0E05B
:10121000B0E080939D0190939E01A0939F01B093B5
:10122000A0018BE291E090939A018093990185EC63
:1012300090E09093A6018093A50184EC90E09093B8
:10124000A8018093A70180EC90E09093AA0180937D
:10125000A90181EC90E09093AC018093AB0182EC0A
:1012600090E09093AE018093AD0186EC90E0909376
:10127000B0018093AF011092B2011092B3011092AD
:10128000B4011092B5010895CF92DF92EF92FF92D0
:101290000F931F93CF93DF937C016A01EB0100E072
:1012A00010E00C151D0571F06991D701ED91FC91CD
:1012B0000190F081E02DC7010995892B19F00F5F8E
:1012C0001F4FEFCFC801DF91CF911F910F91FF907A
:1012D000EF90DF90CF9008956115710581F0DB01EB
:1012E0000D900020E9F7AD0141505109461B570B05
:1012F000DC01ED91FC910280F381E02D099480E006
:1013000090E0089567E371E00C946C090F931F93CC
:10131000CF93DF93EC010E946C098C01CE010E94F7
:101320008209800F911FDF91CF911F910F91089536
:10133000FC01808191810C94A10BCF93DF93EC0190
:1013400088819981009711F00E94A10B198218825F
:101350001D821C821B821A82DF91CF9108950F9308
:101360001F93CF93DF93EC018B016F5F7F4F8881D9
:1013700099810E94300C009731F0998388831B83F8
:101380000A8381E001C080E0DF91CF911F910F912E
:101390000895CF93DF93EC0188819981892B29F0FF
:1013A0008A819B818617970760F4CE010E94AF095E
:1013B000882341F08C819D81892B19F4E881F98182
:1013C000108281E0DF91CF910895EF92FF920F9309
:1013D0001F93CF93DF93EC017B018A01BA010E9436
:1013E000C909811104C0CE010E949D0907C01D8357
:1013F0000C83B701888199810E94030DCE01DF9192
:10140000CF911F910F91FF90EF900895FC011182F1
:10141000108213821282158214826115710559F0AF
:10142000FB0101900020E9F7AF0141505109461B33
:10143000570B0C94E5090895CF93DF93EC016115E8
:10144000710561F0FB0101900020E9F7AF01415007
:101450005109461B570B0E94E50902C00E949D09D5
:10146000CE01DF91CF910895EF92FF920F931F93DA
:10147000CF93DF93EC017B010C811D816115710518
:1014800011F480E016C04115510591F0040F151FAD
:10149000B8010E94C9098823A1F3288139818C8170
:1014A0009D81B701820F931F0E94030D1D830C8342
:1014B00081E0DF91CF911F910F91FF90EF90089500
:1014C000CF93DF9300D0CDB7DEB769831A8241E0B6
:1014D00050E0BE016F5F7F4F0E94340A0F900F9063
:1014E000DF91CF910895FA01DB0114964D915C9143
:1014F0001597DC0114962D913C911597241B350B03
:101500002E173F0788F08D919C91009769F0DB01C1
:101510006D917C916115710539F08E0F9F1F0E94AE
:101520000A0D21E0892B09F020E0822F0895FC01AB
:1015300044815581FB01248135814217530720F0F6
:1015400040E050E00C94730A80E008950F931F93DD
:10155000CF93DF93EB0141155105E9F02097D9F0C6
:10156000FC016481758126173707A0F4621B730B99
:101570008A01015011096017710708F48B01FC0101
:1015800060817181620F731FA801CE010E94180D46
:10159000C00FD11F1882DF91CF911F910F91089535
:1015A00008950E9487060E94D00A0E943801C7E869
:1015B000D7E00E9451012097E1F30E948707F9CFFD
:1015C0000895A1E21A2EAA1BBB1BFD010DC0AA1F84
:1015D000BB1FEE1FFF1FA217B307E407F50720F09C
:1015E000A21BB30BE40BF50B661F771F881F991F17
:1015F0001A9469F760957095809590959B01AC0160
:10160000BD01CF010895EE0FFF1F0590F491E02D6D
:101610000994CF93DF938230910510F482E090E03B
:10162000E0913802F091390220E030E0A0E0B0E033
:10163000309739F14081518148175907B8F0481760
:10164000590771F482819381109729F013969C9326
:101650008E9312972CC0909339028093380227C042
:101660002115310531F04217530718F0A901DB01AC
:1016700001C0EF019A01BD01DF010280F381E02D7D
:10168000D7CF21153105F9F0281B390B243031054E
:1016900080F48A819B816115710521F0FB019383A0
:1016A000828304C09093390280933802FE013296FF
:1016B00044C0FE01E20FF31F819391932250310940
:1016C000398328833AC02091360230913702232B88
:1016D00041F42091020130910301309337022093AD
:1016E000360220910001309101012115310541F4AC
:1016F0002DB73EB74091040150910501241B350BD5
:10170000E0913602F0913702E217F307A0F42E1BA6
:101710003F0B2817390778F0AC014E5F5F4F241755
:10172000350748F04E0F5F1F509337024093360243
:101730008193919302C0E0E0F0E0CF01DF91CF917F
:101740000895CF93DF93009709F487C0FC01329787
:1017500013821282C0913802D0913902209781F40D
:1017600020813181280F391F8091360290913702F4
:101770008217930779F5F0933702E09336026DC034
:10178000DE0120E030E0AE17BF0750F412964D9115
:101790005C9113979D014115510509F1DA01F3CFD1
:1017A000B383A28340815181840F951F8A179B07C1
:1017B00071F48D919C911197840F951F02969183DE
:1017C000808312968D919C91139793838283211528
:1017D000310529F4F0933902E09338023EC0D90173
:1017E0001396FC93EE9312974D915D91A40FB51F44
:1017F000EA17FB0779F480819181840F951F029687
:10180000D90111969C938E938281938113969C9318
:101810008E931297E0E0F0E08A819B81009719F0A7
:10182000FE01EC01F9CFCE01029628813981820FA9
:10183000931F20913602309137022817390769F437
:10184000309729F4109239021092380202C01382A4
:101850001282D0933702C0933602DF91CF91089560
:10186000A0E0B0E0E6E3FCE00C942B0DEC01CB0132
:10187000209719F40E94090BB8C0FE01E60FF71F6C
:101880009E0122503109E217F30708F4ACC0D901D8
:101890000D911C91119706171707B8F00530110527
:1018A00008F49FC0A801445051094617570708F48F
:1018B00098C002501109061B170B019311936D93E9
:1018C0007C93CF010E94A10B8CC05B01A01AB10ACE
:1018D0004E01800E911EA0913802B0913902612C08
:1018E000712C60E070E0109709F449C0A815B905A3
:1018F000C9F5ED90FC901197670142E0C40ED11C30
:10190000CA14DB0478F147018A189B08640142E09D
:10191000C40ED11C1296BC9012971396AC91B5E0F0
:10192000CB16D10440F0B282A38391828082D90188
:101930008D939C9309C00E5F1F4F0E0D1F1DF90163
:1019400011830083EB2DFA2F6115710531F0DB0156
:101950001396FC93EE93129744C0F0933902E093F0
:1019600038023FC06D917C9111976616770608F496
:101970003B01BD0112960D90BC91A02DB4CF60919A
:1019800036027091370268157905E9F46816790610
:10199000D0F440910001509101014115510541F4ED
:1019A0004DB75EB76091040170910501461B570B5E
:1019B000E417F507C0F4F0933702E0933602F9011B
:1019C000918380830EC00E94090B7C01009759F01F
:1019D000A801BE010E94FA0CCE010E94A10BC70112
:1019E00004C0CE0102C080E090E0CDB7DEB7EEE0EB
:1019F0000C94470DFB01DC0102C001900D92415097
:101A00005040D8F70895FB01DC0101900D920020B1
:101A1000E1F70895FB01DC014150504030F08D9119
:101A20000190801919F40020B9F7881B990B0895CB
:101A3000FB01DC014150504048F001900D92002024
:101A4000C9F701C01D9241505040E0F708952F9210
:101A50003F924F925F926F927F928F929F92AF923E
:101A6000BF92CF92DF92EF92FF920F931F93CF938B
:101A7000DF93CDB7DEB7CA1BDB0B0FB6F894DEBF22
:101A80000FBECDBF09942A88398848885F846E8448
:101A90007D848C849B84AA84B984C884DF80EE8092
:101AA000FD800C811B81AA81B981CE0FD11D0FB69B
:101AB000F894DEBF0FBECDBFED01089510E0CEEC6F
:101AC000D0E004C0FE010E94050B2296C03DD10764
:061AD000C9F7F894FFCFF6
:101AD60000003A0280007063546F4E6F6465006EBA
:101AE6006F6465546F506300777363002E006765FB
:101AF6007444657649440000000000D80744095A3A
:101B06000773076507B6070D0A006E616E00696EFA
:061B160066006F76660018
:00000001FF
